{
  "_format": "hh-sol-artifact-1",
  "contractName": "INA",
  "sourceName": "contracts/INA.sol",
  "abi": [
    {
      "inputs": [
        {
          "internalType": "address",
          "name": "_usdtContract",
          "type": "address"
        }
      ],
      "stateMutability": "nonpayable",
      "type": "constructor"
    },
    {
      "anonymous": false,
      "inputs": [
        {
          "indexed": true,
          "internalType": "address",
          "name": "owner",
          "type": "address"
        },
        {
          "indexed": true,
          "internalType": "address",
          "name": "spender",
          "type": "address"
        },
        {
          "indexed": false,
          "internalType": "uint256",
          "name": "value",
          "type": "uint256"
        }
      ],
      "name": "Approval",
      "type": "event"
    },
    {
      "anonymous": false,
      "inputs": [
        {
          "indexed": true,
          "internalType": "address",
          "name": "from",
          "type": "address"
        },
        {
          "indexed": true,
          "internalType": "address",
          "name": "to",
          "type": "address"
        },
        {
          "indexed": false,
          "internalType": "uint256",
          "name": "value",
          "type": "uint256"
        }
      ],
      "name": "Transfer",
      "type": "event"
    },
    {
      "inputs": [],
      "name": "INAowner",
      "outputs": [
        {
          "internalType": "address",
          "name": "",
          "type": "address"
        }
      ],
      "stateMutability": "view",
      "type": "function"
    },
    {
      "inputs": [
        {
          "internalType": "address",
          "name": "_address",
          "type": "address"
        }
      ],
      "name": "addFromBlacklist",
      "outputs": [],
      "stateMutability": "nonpayable",
      "type": "function"
    },
    {
      "inputs": [
        {
          "internalType": "address",
          "name": "owner",
          "type": "address"
        },
        {
          "internalType": "address",
          "name": "spender",
          "type": "address"
        }
      ],
      "name": "allowance",
      "outputs": [
        {
          "internalType": "uint256",
          "name": "",
          "type": "uint256"
        }
      ],
      "stateMutability": "view",
      "type": "function"
    },
    {
      "inputs": [
        {
          "internalType": "address",
          "name": "spender",
          "type": "address"
        },
        {
          "internalType": "uint256",
          "name": "amount",
          "type": "uint256"
        }
      ],
      "name": "approve",
      "outputs": [
        {
          "internalType": "bool",
          "name": "",
          "type": "bool"
        }
      ],
      "stateMutability": "nonpayable",
      "type": "function"
    },
    {
      "inputs": [
        {
          "internalType": "address",
          "name": "account",
          "type": "address"
        }
      ],
      "name": "balanceOf",
      "outputs": [
        {
          "internalType": "uint256",
          "name": "",
          "type": "uint256"
        }
      ],
      "stateMutability": "view",
      "type": "function"
    },
    {
      "inputs": [],
      "name": "decimals",
      "outputs": [
        {
          "internalType": "uint8",
          "name": "",
          "type": "uint8"
        }
      ],
      "stateMutability": "view",
      "type": "function"
    },
    {
      "inputs": [
        {
          "internalType": "address",
          "name": "spender",
          "type": "address"
        },
        {
          "internalType": "uint256",
          "name": "subtractedValue",
          "type": "uint256"
        }
      ],
      "name": "decreaseAllowance",
      "outputs": [
        {
          "internalType": "bool",
          "name": "",
          "type": "bool"
        }
      ],
      "stateMutability": "nonpayable",
      "type": "function"
    },
    {
      "inputs": [
        {
          "internalType": "address",
          "name": "spender",
          "type": "address"
        },
        {
          "internalType": "uint256",
          "name": "addedValue",
          "type": "uint256"
        }
      ],
      "name": "increaseAllowance",
      "outputs": [
        {
          "internalType": "bool",
          "name": "",
          "type": "bool"
        }
      ],
      "stateMutability": "nonpayable",
      "type": "function"
    },
    {
      "inputs": [],
      "name": "name",
      "outputs": [
        {
          "internalType": "string",
          "name": "",
          "type": "string"
        }
      ],
      "stateMutability": "view",
      "type": "function"
    },
    {
      "inputs": [
        {
          "internalType": "uint256",
          "name": "_amountINA",
          "type": "uint256"
        },
        {
          "internalType": "uint256",
          "name": "_paymentChoice",
          "type": "uint256"
        }
      ],
      "name": "privateSaleBuy",
      "outputs": [],
      "stateMutability": "nonpayable",
      "type": "function"
    },
    {
      "inputs": [],
      "name": "privateSaleLock",
      "outputs": [],
      "stateMutability": "nonpayable",
      "type": "function"
    },
    {
      "inputs": [],
      "name": "privateSaleUnlock",
      "outputs": [],
      "stateMutability": "nonpayable",
      "type": "function"
    },
    {
      "inputs": [
        {
          "internalType": "address",
          "name": "_address",
          "type": "address"
        }
      ],
      "name": "removeFromBlacklist",
      "outputs": [],
      "stateMutability": "nonpayable",
      "type": "function"
    },
    {
      "inputs": [],
      "name": "symbol",
      "outputs": [
        {
          "internalType": "string",
          "name": "",
          "type": "string"
        }
      ],
      "stateMutability": "view",
      "type": "function"
    },
    {
      "inputs": [],
      "name": "totalSupply",
      "outputs": [
        {
          "internalType": "uint256",
          "name": "",
          "type": "uint256"
        }
      ],
      "stateMutability": "view",
      "type": "function"
    },
    {
      "inputs": [
        {
          "internalType": "address",
          "name": "to",
          "type": "address"
        },
        {
          "internalType": "uint256",
          "name": "amount",
          "type": "uint256"
        }
      ],
      "name": "transfer",
      "outputs": [
        {
          "internalType": "bool",
          "name": "",
          "type": "bool"
        }
      ],
      "stateMutability": "nonpayable",
      "type": "function"
    },
    {
      "inputs": [
        {
          "internalType": "address",
          "name": "from",
          "type": "address"
        },
        {
          "internalType": "address",
          "name": "to",
          "type": "address"
        },
        {
          "internalType": "uint256",
          "name": "amount",
          "type": "uint256"
        }
      ],
      "name": "transferFrom",
      "outputs": [
        {
          "internalType": "bool",
          "name": "",
          "type": "bool"
        }
      ],
      "stateMutability": "nonpayable",
      "type": "function"
    }
  ],
  "bytecode": "0x60806040526000601060146101000a81548160ff0219169083151502179055503480156200002c57600080fd5b506040516200304e3803806200304e833981810160405281019062000052919062000ab0565b6040518060400160405280600b81526020017f494e414e4920746f6b656e0000000000000000000000000000000000000000008152506040518060400160405280600381526020017f494e4100000000000000000000000000000000000000000000000000000000008152508160039081620000cf919062000d5c565b508060049081620000e1919062000d5c565b5032600660006101000a81548173ffffffffffffffffffffffffffffffffffffffff021916908373ffffffffffffffffffffffffffffffffffffffff160217905550505033601060006101000a81548173ffffffffffffffffffffffffffffffffffffffff021916908373ffffffffffffffffffffffffffffffffffffffff1602179055507370997970c51812dc3a010c7d01b50e0d17dc79c8600760006101000a81548173ffffffffffffffffffffffffffffffffffffffff021916908373ffffffffffffffffffffffffffffffffffffffff160217905550733c44cdddb6a900fa2b585dd299e03d12fa4293bc600860006101000a81548173ffffffffffffffffffffffffffffffffffffffff021916908373ffffffffffffffffffffffffffffffffffffffff1602179055507390f79bf6eb2c4f870365e785982e1f101e93b906600960006101000a81548173ffffffffffffffffffffffffffffffffffffffff021916908373ffffffffffffffffffffffffffffffffffffffff1602179055507315d34aaf54267db7d7c367839aaf71a00a2c6a65600a60006101000a81548173ffffffffffffffffffffffffffffffffffffffff021916908373ffffffffffffffffffffffffffffffffffffffff160217905550739965507d1a55bcc2695c58ba16fb37d819b0a4dc600b60006101000a81548173ffffffffffffffffffffffffffffffffffffffff021916908373ffffffffffffffffffffffffffffffffffffffff16021790555073976ea74026e726554db657fa54763abd0c3a0aa9600c60006101000a81548173ffffffffffffffffffffffffffffffffffffffff021916908373ffffffffffffffffffffffffffffffffffffffff1602179055507314dc79964da2c08b23698b3d3cc7ca32193d9955600d60006101000a81548173ffffffffffffffffffffffffffffffffffffffff021916908373ffffffffffffffffffffffffffffffffffffffff1602179055507323618e81e3f5cdf7f54c3d65f7fbc0abf5b21e8f600e60006101000a81548173ffffffffffffffffffffffffffffffffffffffff021916908373ffffffffffffffffffffffffffffffffffffffff16021790555073a0ee7a142d267c1f36714e4a8f75612f20a79720600f60006101000a81548173ffffffffffffffffffffffffffffffffffffffff021916908373ffffffffffffffffffffffffffffffffffffffff16021790555080601160006101000a81548173ffffffffffffffffffffffffffffffffffffffff021916908373ffffffffffffffffffffffffffffffffffffffff160217905550730715a7794a1dc8e42615f059dd6e406a6594651a601260006101000a81548173ffffffffffffffffffffffffffffffffffffffff021916908373ffffffffffffffffffffffffffffffffffffffff16021790555073d0d5e3db44de05e9f294bb0a3beeaf030de24ada601360006101000a81548173ffffffffffffffffffffffffffffffffffffffff021916908373ffffffffffffffffffffffffffffffffffffffff160217905550620005b0600760009054906101000a900473ffffffffffffffffffffffffffffffffffffffff1662000585620008c660201b60201c565b600a62000593919062000fd3565b63055d4a80620005a4919062001024565b620008cf60201b60201c565b62000612600860009054906101000a900473ffffffffffffffffffffffffffffffffffffffff16620005e7620008c660201b60201c565b600a620005f5919062000fd3565b6308f0d18062000606919062001024565b620008cf60201b60201c565b62000674600960009054906101000a900473ffffffffffffffffffffffffffffffffffffffff1662000649620008c660201b60201c565b600a62000657919062000fd3565b6305f5e10062000668919062001024565b620008cf60201b60201c565b620006d6600a60009054906101000a900473ffffffffffffffffffffffffffffffffffffffff16620006ab620008c660201b60201c565b600a620006b9919062000fd3565b630a21fe80620006ca919062001024565b620008cf60201b60201c565b62000738600b60009054906101000a900473ffffffffffffffffffffffffffffffffffffffff166200070d620008c660201b60201c565b600a6200071b919062000fd3565b6305f5e1006200072c919062001024565b620008cf60201b60201c565b62000799600c60009054906101000a900473ffffffffffffffffffffffffffffffffffffffff166200076f620008c660201b60201c565b600a6200077d919062000fd3565b629896806200078d919062001024565b620008cf60201b60201c565b620007fb600d60009054906101000a900473ffffffffffffffffffffffffffffffffffffffff16620007d0620008c660201b60201c565b600a620007de919062000fd3565b6309896800620007ef919062001024565b620008cf60201b60201c565b6200085d600e60009054906101000a900473ffffffffffffffffffffffffffffffffffffffff1662000832620008c660201b60201c565b600a62000840919062000fd3565b6305f5e10062000851919062001024565b620008cf60201b60201c565b620008bf600f60009054906101000a900473ffffffffffffffffffffffffffffffffffffffff1662000894620008c660201b60201c565b600a620008a2919062000fd3565b6303473bc0620008b3919062001024565b620008cf60201b60201c565b506200115b565b60006012905090565b600073ffffffffffffffffffffffffffffffffffffffff168273ffffffffffffffffffffffffffffffffffffffff160362000941576040517f08c379a00000000000000000000000000000000000000000000000000000000081526004016200093890620010d0565b60405180910390fd5b620009556000838362000a3c60201b60201c565b8060026000828254620009699190620010f2565b92505081905550806000808473ffffffffffffffffffffffffffffffffffffffff1673ffffffffffffffffffffffffffffffffffffffff168152602001908152602001600020600082825401925050819055508173ffffffffffffffffffffffffffffffffffffffff16600073ffffffffffffffffffffffffffffffffffffffff167fddf252ad1be2c89b69c2b068fc378daa952ba7f163c4a11628f55a4df523b3ef8360405162000a1c91906200113e565b60405180910390a362000a386000838362000a4160201b60201c565b5050565b505050565b505050565b600080fd5b600073ffffffffffffffffffffffffffffffffffffffff82169050919050565b600062000a788262000a4b565b9050919050565b62000a8a8162000a6b565b811462000a9657600080fd5b50565b60008151905062000aaa8162000a7f565b92915050565b60006020828403121562000ac95762000ac862000a46565b5b600062000ad98482850162000a99565b91505092915050565b600081519050919050565b7f4e487b7100000000000000000000000000000000000000000000000000000000600052604160045260246000fd5b7f4e487b7100000000000000000000000000000000000000000000000000000000600052602260045260246000fd5b6000600282049050600182168062000b6457607f821691505b60208210810362000b7a5762000b7962000b1c565b5b50919050565b60008190508160005260206000209050919050565b60006020601f8301049050919050565b600082821b905092915050565b60006008830262000be47fffffffffffffffffffffffffffffffffffffffffffffffffffffffffffffffff8262000ba5565b62000bf0868362000ba5565b95508019841693508086168417925050509392505050565b6000819050919050565b6000819050919050565b600062000c3d62000c3762000c318462000c08565b62000c12565b62000c08565b9050919050565b6000819050919050565b62000c598362000c1c565b62000c7162000c688262000c44565b84845462000bb2565b825550505050565b600090565b62000c8862000c79565b62000c9581848462000c4e565b505050565b5b8181101562000cbd5762000cb160008262000c7e565b60018101905062000c9b565b5050565b601f82111562000d0c5762000cd68162000b80565b62000ce18462000b95565b8101602085101562000cf1578190505b62000d0962000d008562000b95565b83018262000c9a565b50505b505050565b600082821c905092915050565b600062000d316000198460080262000d11565b1980831691505092915050565b600062000d4c838362000d1e565b9150826002028217905092915050565b62000d678262000ae2565b67ffffffffffffffff81111562000d835762000d8262000aed565b5b62000d8f825462000b4b565b62000d9c82828562000cc1565b600060209050601f83116001811462000dd4576000841562000dbf578287015190505b62000dcb858262000d3e565b86555062000e3b565b601f19841662000de48662000b80565b60005b8281101562000e0e5784890151825560018201915060208501945060208101905062000de7565b8683101562000e2e578489015162000e2a601f89168262000d1e565b8355505b6001600288020188555050505b505050505050565b7f4e487b7100000000000000000000000000000000000000000000000000000000600052601160045260246000fd5b60008160011c9050919050565b6000808291508390505b600185111562000ed15780860481111562000ea95762000ea862000e43565b5b600185161562000eb95780820291505b808102905062000ec98562000e72565b945062000e89565b94509492505050565b60008262000eec576001905062000fbf565b8162000efc576000905062000fbf565b816001811462000f15576002811462000f205762000f56565b600191505062000fbf565b60ff84111562000f355762000f3462000e43565b5b8360020a91508482111562000f4f5762000f4e62000e43565b5b5062000fbf565b5060208310610133831016604e8410600b841016171562000f905782820a90508381111562000f8a5762000f8962000e43565b5b62000fbf565b62000f9f848484600162000e7f565b9250905081840481111562000fb95762000fb862000e43565b5b81810290505b9392505050565b600060ff82169050919050565b600062000fe08262000c08565b915062000fed8362000fc6565b92506200101c7fffffffffffffffffffffffffffffffffffffffffffffffffffffffffffffffff848462000eda565b905092915050565b6000620010318262000c08565b91506200103e8362000c08565b92508282026200104e8162000c08565b9150828204841483151762001068576200106762000e43565b5b5092915050565b600082825260208201905092915050565b7f45524332303a206d696e7420746f20746865207a65726f206164647265737300600082015250565b6000620010b8601f836200106f565b9150620010c58262001080565b602082019050919050565b60006020820190508181036000830152620010eb81620010a9565b9050919050565b6000620010ff8262000c08565b91506200110c8362000c08565b925082820190508082111562001127576200112662000e43565b5b92915050565b620011388162000c08565b82525050565b60006020820190506200115560008301846200112d565b92915050565b611ee3806200116b6000396000f3fe608060405234801561001057600080fd5b506004361061010b5760003560e01c80634566809a116100a25780638e8cc9ce116100715780638e8cc9ce146102a657806395d89b41146102b0578063a457c2d7146102ce578063a9059cbb146102fe578063dd62ed3e1461032e5761010b565b80634566809a14610234578063537df3b61461025057806370a082311461026c5780637a775a2e1461029c5761010b565b80632c7ffb68116100de5780632c7ffb68146101ac578063313ce567146101ca57806333048e9f146101e857806339509351146102045761010b565b806306fdde0314610110578063095ea7b31461012e57806318160ddd1461015e57806323b872dd1461017c575b600080fd5b61011861035e565b6040516101259190611426565b60405180910390f35b610148600480360381019061014391906114e1565b6103f0565b604051610155919061153c565b60405180910390f35b610166610413565b6040516101739190611566565b60405180910390f35b61019660048036038101906101919190611581565b61041d565b6040516101a3919061153c565b60405180910390f35b6101b461054c565b6040516101c191906115e3565b60405180910390f35b6101d2610572565b6040516101df919061161a565b60405180910390f35b61020260048036038101906101fd9190611635565b61057b565b005b61021e600480360381019061021991906114e1565b610857565b60405161022b919061153c565b60405180910390f35b61024e60048036038101906102499190611675565b61088e565b005b61026a60048036038101906102659190611675565b610979565b005b61028660048036038101906102819190611675565b610a64565b6040516102939190611566565b60405180910390f35b6102a4610aac565b005b6102ae610b59565b005b6102b8610c06565b6040516102c59190611426565b60405180910390f35b6102e860048036038101906102e391906114e1565b610c98565b6040516102f5919061153c565b60405180910390f35b610318600480360381019061031391906114e1565b610d0f565b604051610325919061153c565b60405180910390f35b610348600480360381019061034391906116a2565b610e32565b6040516103559190611566565b60405180910390f35b60606003805461036d90611711565b80601f016020809104026020016040519081016040528092919081815260200182805461039990611711565b80156103e65780601f106103bb576101008083540402835291602001916103e6565b820191906000526020600020905b8154815290600101906020018083116103c957829003601f168201915b5050505050905090565b6000806103fb610eb9565b9050610408818585610ec1565b600191505092915050565b6000600254905090565b6000600560003373ffffffffffffffffffffffffffffffffffffffff1673ffffffffffffffffffffffffffffffffffffffff16815260200190815260200160002060009054906101000a900460ff16156104ac576040517f08c379a00000000000000000000000000000000000000000000000000000000081526004016104a39061178e565b60405180910390fd5b600660009054906101000a900473ffffffffffffffffffffffffffffffffffffffff1673ffffffffffffffffffffffffffffffffffffffff163373ffffffffffffffffffffffffffffffffffffffff1603610545576301da9c004261051191906117dd565b42101561051d57600080fd5b6000610527610eb9565b905061053485828561108a565b61053f858585611116565b60019150505b9392505050565b600660009054906101000a900473ffffffffffffffffffffffffffffffffffffffff1681565b60006012905090565b62ed4e004261058a91906117dd565b42111561059657600080fd5b601060149054906101000a900460ff166105e5576040517f08c379a00000000000000000000000000000000000000000000000000000000081526004016105dc9061185d565b60405180910390fd5b6000339050600a8203610851576000601160009054906101000a900473ffffffffffffffffffffffffffffffffffffffff16905060006702386f26fc100000905060008186610634919061187d565b90506000670de0b6b3a76400008761064c919061187d565b9050818473ffffffffffffffffffffffffffffffffffffffff166370a08231876040518263ffffffff1660e01b815260040161068891906115e3565b602060405180830381865afa1580156106a5573d6000803e3d6000fd5b505050506040513d601f19601f820116820180604052508101906106c991906118d4565b101561070a576040517f08c379a00000000000000000000000000000000000000000000000000000000081526004016107019061194d565b60405180910390fd5b6000610737600760009054906101000a900473ffffffffffffffffffffffffffffffffffffffff16610a64565b11610777576040517f08c379a000000000000000000000000000000000000000000000000000000000815260040161076e906119b9565b60405180910390fd5b8373ffffffffffffffffffffffffffffffffffffffff166323b872dd86600760009054906101000a900473ffffffffffffffffffffffffffffffffffffffff16856040518463ffffffff1660e01b81526004016107d6939291906119d9565b6020604051808303816000875af11580156107f5573d6000803e3d6000fd5b505050506040513d601f19601f820116820180604052508101906108199190611a3c565b50610847600760009054906101000a900473ffffffffffffffffffffffffffffffffffffffff16868361041d565b5050505050610852565b5b505050565b600080610862610eb9565b90506108838185856108748589610e32565b61087e91906117dd565b610ec1565b600191505092915050565b601060009054906101000a900473ffffffffffffffffffffffffffffffffffffffff1673ffffffffffffffffffffffffffffffffffffffff163373ffffffffffffffffffffffffffffffffffffffff161461091e576040517f08c379a000000000000000000000000000000000000000000000000000000000815260040161091590611ab5565b60405180910390fd5b6001600560008373ffffffffffffffffffffffffffffffffffffffff1673ffffffffffffffffffffffffffffffffffffffff16815260200190815260200160002060006101000a81548160ff02191690831515021790555050565b601060009054906101000a900473ffffffffffffffffffffffffffffffffffffffff1673ffffffffffffffffffffffffffffffffffffffff163373ffffffffffffffffffffffffffffffffffffffff1614610a09576040517f08c379a0000000000000000000000000000000000000000000000000000000008152600401610a0090611ab5565b60405180910390fd5b6000600560008373ffffffffffffffffffffffffffffffffffffffff1673ffffffffffffffffffffffffffffffffffffffff16815260200190815260200160002060006101000a81548160ff02191690831515021790555050565b60008060008373ffffffffffffffffffffffffffffffffffffffff1673ffffffffffffffffffffffffffffffffffffffff168152602001908152602001600020549050919050565b601060009054906101000a900473ffffffffffffffffffffffffffffffffffffffff1673ffffffffffffffffffffffffffffffffffffffff163373ffffffffffffffffffffffffffffffffffffffff1614610b3c576040517f08c379a0000000000000000000000000000000000000000000000000000000008152600401610b3390611ab5565b60405180910390fd5b6000601060146101000a81548160ff021916908315150217905550565b601060009054906101000a900473ffffffffffffffffffffffffffffffffffffffff1673ffffffffffffffffffffffffffffffffffffffff163373ffffffffffffffffffffffffffffffffffffffff1614610be9576040517f08c379a0000000000000000000000000000000000000000000000000000000008152600401610be090611ab5565b60405180910390fd5b6001601060146101000a81548160ff021916908315150217905550565b606060048054610c1590611711565b80601f0160208091040260200160405190810160405280929190818152602001828054610c4190611711565b8015610c8e5780601f10610c6357610100808354040283529160200191610c8e565b820191906000526020600020905b815481529060010190602001808311610c7157829003601f168201915b5050505050905090565b600080610ca3610eb9565b90506000610cb18286610e32565b905083811015610cf6576040517f08c379a0000000000000000000000000000000000000000000000000000000008152600401610ced90611b47565b60405180910390fd5b610d038286868403610ec1565b60019250505092915050565b6000600560003373ffffffffffffffffffffffffffffffffffffffff1673ffffffffffffffffffffffffffffffffffffffff16815260200190815260200160002060009054906101000a900460ff1615610d9e576040517f08c379a0000000000000000000000000000000000000000000000000000000008152600401610d959061178e565b60405180910390fd5b600660009054906101000a900473ffffffffffffffffffffffffffffffffffffffff1673ffffffffffffffffffffffffffffffffffffffff163373ffffffffffffffffffffffffffffffffffffffff1603610e2c576301da9c0042610e0391906117dd565b421015610e0f57600080fd5b6000610e19610eb9565b9050610e26818585611116565b60019150505b92915050565b6000600160008473ffffffffffffffffffffffffffffffffffffffff1673ffffffffffffffffffffffffffffffffffffffff16815260200190815260200160002060008373ffffffffffffffffffffffffffffffffffffffff1673ffffffffffffffffffffffffffffffffffffffff16815260200190815260200160002054905092915050565b600033905090565b600073ffffffffffffffffffffffffffffffffffffffff168373ffffffffffffffffffffffffffffffffffffffff1603610f30576040517f08c379a0000000000000000000000000000000000000000000000000000000008152600401610f2790611bd9565b60405180910390fd5b600073ffffffffffffffffffffffffffffffffffffffff168273ffffffffffffffffffffffffffffffffffffffff1603610f9f576040517f08c379a0000000000000000000000000000000000000000000000000000000008152600401610f9690611c6b565b60405180910390fd5b80600160008573ffffffffffffffffffffffffffffffffffffffff1673ffffffffffffffffffffffffffffffffffffffff16815260200190815260200160002060008473ffffffffffffffffffffffffffffffffffffffff1673ffffffffffffffffffffffffffffffffffffffff168152602001908152602001600020819055508173ffffffffffffffffffffffffffffffffffffffff168373ffffffffffffffffffffffffffffffffffffffff167f8c5be1e5ebec7d5bd14f71427d1e84f3dd0314c0f7b2291e5b200ac8c7c3b9258360405161107d9190611566565b60405180910390a3505050565b60006110968484610e32565b90507fffffffffffffffffffffffffffffffffffffffffffffffffffffffffffffffff81146111105781811015611102576040517f08c379a00000000000000000000000000000000000000000000000000000000081526004016110f990611cd7565b60405180910390fd5b61110f8484848403610ec1565b5b50505050565b600073ffffffffffffffffffffffffffffffffffffffff168373ffffffffffffffffffffffffffffffffffffffff1603611185576040517f08c379a000000000000000000000000000000000000000000000000000000000815260040161117c90611d69565b60405180910390fd5b600073ffffffffffffffffffffffffffffffffffffffff168273ffffffffffffffffffffffffffffffffffffffff16036111f4576040517f08c379a00000000000000000000000000000000000000000000000000000000081526004016111eb90611dfb565b60405180910390fd5b6111ff83838361138c565b60008060008573ffffffffffffffffffffffffffffffffffffffff1673ffffffffffffffffffffffffffffffffffffffff16815260200190815260200160002054905081811015611285576040517f08c379a000000000000000000000000000000000000000000000000000000000815260040161127c90611e8d565b60405180910390fd5b8181036000808673ffffffffffffffffffffffffffffffffffffffff1673ffffffffffffffffffffffffffffffffffffffff16815260200190815260200160002081905550816000808573ffffffffffffffffffffffffffffffffffffffff1673ffffffffffffffffffffffffffffffffffffffff168152602001908152602001600020600082825401925050819055508273ffffffffffffffffffffffffffffffffffffffff168473ffffffffffffffffffffffffffffffffffffffff167fddf252ad1be2c89b69c2b068fc378daa952ba7f163c4a11628f55a4df523b3ef846040516113739190611566565b60405180910390a3611386848484611391565b50505050565b505050565b505050565b600081519050919050565b600082825260208201905092915050565b60005b838110156113d05780820151818401526020810190506113b5565b60008484015250505050565b6000601f19601f8301169050919050565b60006113f882611396565b61140281856113a1565b93506114128185602086016113b2565b61141b816113dc565b840191505092915050565b6000602082019050818103600083015261144081846113ed565b905092915050565b600080fd5b600073ffffffffffffffffffffffffffffffffffffffff82169050919050565b60006114788261144d565b9050919050565b6114888161146d565b811461149357600080fd5b50565b6000813590506114a58161147f565b92915050565b6000819050919050565b6114be816114ab565b81146114c957600080fd5b50565b6000813590506114db816114b5565b92915050565b600080604083850312156114f8576114f7611448565b5b600061150685828601611496565b9250506020611517858286016114cc565b9150509250929050565b60008115159050919050565b61153681611521565b82525050565b6000602082019050611551600083018461152d565b92915050565b611560816114ab565b82525050565b600060208201905061157b6000830184611557565b92915050565b60008060006060848603121561159a57611599611448565b5b60006115a886828701611496565b93505060206115b986828701611496565b92505060406115ca868287016114cc565b9150509250925092565b6115dd8161146d565b82525050565b60006020820190506115f860008301846115d4565b92915050565b600060ff82169050919050565b611614816115fe565b82525050565b600060208201905061162f600083018461160b565b92915050565b6000806040838503121561164c5761164b611448565b5b600061165a858286016114cc565b925050602061166b858286016114cc565b9150509250929050565b60006020828403121561168b5761168a611448565b5b600061169984828501611496565b91505092915050565b600080604083850312156116b9576116b8611448565b5b60006116c785828601611496565b92505060206116d885828601611496565b9150509250929050565b7f4e487b7100000000000000000000000000000000000000000000000000000000600052602260045260246000fd5b6000600282049050600182168061172957607f821691505b60208210810361173c5761173b6116e2565b5b50919050565b7f4552524f523a20596f7520617265206f6e2074686520426c61636b6c69737400600082015250565b6000611778601f836113a1565b915061178382611742565b602082019050919050565b600060208201905081810360008301526117a78161176b565b9050919050565b7f4e487b7100000000000000000000000000000000000000000000000000000000600052601160045260246000fd5b60006117e8826114ab565b91506117f3836114ab565b925082820190508082111561180b5761180a6117ae565b5b92915050565b7f4552524f523a20507269766174652073616c65204c6f636b6564000000000000600082015250565b6000611847601a836113a1565b915061185282611811565b602082019050919050565b600060208201905081810360008301526118768161183a565b9050919050565b6000611888826114ab565b9150611893836114ab565b92508282026118a1816114ab565b915082820484148315176118b8576118b76117ae565b5b5092915050565b6000815190506118ce816114b5565b92915050565b6000602082840312156118ea576118e9611448565b5b60006118f8848285016118bf565b91505092915050565b7f4552524f523a204e6f2062616c616e6365207573647400000000000000000000600082015250565b60006119376016836113a1565b915061194282611901565b602082019050919050565b600060208201905081810360008301526119668161192a565b9050919050565b7f4552524f523a20536f6c64206f66662f66696e69736800000000000000000000600082015250565b60006119a36016836113a1565b91506119ae8261196d565b602082019050919050565b600060208201905081810360008301526119d281611996565b9050919050565b60006060820190506119ee60008301866115d4565b6119fb60208301856115d4565b611a086040830184611557565b949350505050565b611a1981611521565b8114611a2457600080fd5b50565b600081519050611a3681611a10565b92915050565b600060208284031215611a5257611a51611448565b5b6000611a6084828501611a27565b91505092915050565b7f4552524f523a20596f75277265206e6f7420746865206f776e65720000000000600082015250565b6000611a9f601b836113a1565b9150611aaa82611a69565b602082019050919050565b60006020820190508181036000830152611ace81611a92565b9050919050565b7f45524332303a2064656372656173656420616c6c6f77616e63652062656c6f7760008201527f207a65726f000000000000000000000000000000000000000000000000000000602082015250565b6000611b316025836113a1565b9150611b3c82611ad5565b604082019050919050565b60006020820190508181036000830152611b6081611b24565b9050919050565b7f45524332303a20617070726f76652066726f6d20746865207a65726f2061646460008201527f7265737300000000000000000000000000000000000000000000000000000000602082015250565b6000611bc36024836113a1565b9150611bce82611b67565b604082019050919050565b60006020820190508181036000830152611bf281611bb6565b9050919050565b7f45524332303a20617070726f766520746f20746865207a65726f20616464726560008201527f7373000000000000000000000000000000000000000000000000000000000000602082015250565b6000611c556022836113a1565b9150611c6082611bf9565b604082019050919050565b60006020820190508181036000830152611c8481611c48565b9050919050565b7f45524332303a20696e73756666696369656e7420616c6c6f77616e6365000000600082015250565b6000611cc1601d836113a1565b9150611ccc82611c8b565b602082019050919050565b60006020820190508181036000830152611cf081611cb4565b9050919050565b7f45524332303a207472616e736665722066726f6d20746865207a65726f20616460008201527f6472657373000000000000000000000000000000000000000000000000000000602082015250565b6000611d536025836113a1565b9150611d5e82611cf7565b604082019050919050565b60006020820190508181036000830152611d8281611d46565b9050919050565b7f45524332303a207472616e7366657220746f20746865207a65726f206164647260008201527f6573730000000000000000000000000000000000000000000000000000000000602082015250565b6000611de56023836113a1565b9150611df082611d89565b604082019050919050565b60006020820190508181036000830152611e1481611dd8565b9050919050565b7f45524332303a207472616e7366657220616d6f756e742065786365656473206260008201527f616c616e63650000000000000000000000000000000000000000000000000000602082015250565b6000611e776026836113a1565b9150611e8282611e1b565b604082019050919050565b60006020820190508181036000830152611ea681611e6a565b905091905056fea2646970667358221220a502ec8efd419bb994117b2ced66b9e0c9cabf1a4a589b273715ef1e4f185f7064736f6c63430008110033",
  "linkReferences": {},
  "deployedLinkReferences": {}
}