{
  "_format": "hh-sol-artifact-1",
  "contractName": "INA",
  "sourceName": "contracts/INA.sol",
  "abi": [
    {
      "inputs": [
        {
          "internalType": "address",
          "name": "_usdtContract",
          "type": "address"
        }
      ],
      "stateMutability": "nonpayable",
      "type": "constructor"
    },
    {
      "anonymous": false,
      "inputs": [
        {
          "indexed": true,
          "internalType": "address",
          "name": "owner",
          "type": "address"
        },
        {
          "indexed": true,
          "internalType": "address",
          "name": "spender",
          "type": "address"
        },
        {
          "indexed": false,
          "internalType": "uint256",
          "name": "value",
          "type": "uint256"
        }
      ],
      "name": "Approval",
      "type": "event"
    },
    {
      "anonymous": false,
      "inputs": [
        {
          "indexed": true,
          "internalType": "address",
          "name": "from",
          "type": "address"
        },
        {
          "indexed": true,
          "internalType": "address",
          "name": "to",
          "type": "address"
        },
        {
          "indexed": false,
          "internalType": "uint256",
          "name": "value",
          "type": "uint256"
        }
      ],
      "name": "Transfer",
      "type": "event"
    },
    {
      "inputs": [],
      "name": "INAowner",
      "outputs": [
        {
          "internalType": "address",
          "name": "",
          "type": "address"
        }
      ],
      "stateMutability": "view",
      "type": "function"
    },
    {
      "inputs": [
        {
          "internalType": "address",
          "name": "_address",
          "type": "address"
        }
      ],
      "name": "addFromBlacklist",
      "outputs": [],
      "stateMutability": "nonpayable",
      "type": "function"
    },
    {
      "inputs": [
        {
          "internalType": "address",
          "name": "owner",
          "type": "address"
        },
        {
          "internalType": "address",
          "name": "spender",
          "type": "address"
        }
      ],
      "name": "allowance",
      "outputs": [
        {
          "internalType": "uint256",
          "name": "",
          "type": "uint256"
        }
      ],
      "stateMutability": "view",
      "type": "function"
    },
    {
      "inputs": [
        {
          "internalType": "address",
          "name": "spender",
          "type": "address"
        },
        {
          "internalType": "uint256",
          "name": "amount",
          "type": "uint256"
        }
      ],
      "name": "approve",
      "outputs": [
        {
          "internalType": "bool",
          "name": "",
          "type": "bool"
        }
      ],
      "stateMutability": "nonpayable",
      "type": "function"
    },
    {
      "inputs": [
        {
          "internalType": "address",
          "name": "account",
          "type": "address"
        }
      ],
      "name": "balanceOf",
      "outputs": [
        {
          "internalType": "uint256",
          "name": "",
          "type": "uint256"
        }
      ],
      "stateMutability": "view",
      "type": "function"
    },
    {
      "inputs": [],
      "name": "decimals",
      "outputs": [
        {
          "internalType": "uint8",
          "name": "",
          "type": "uint8"
        }
      ],
      "stateMutability": "view",
      "type": "function"
    },
    {
      "inputs": [
        {
          "internalType": "address",
          "name": "spender",
          "type": "address"
        },
        {
          "internalType": "uint256",
          "name": "subtractedValue",
          "type": "uint256"
        }
      ],
      "name": "decreaseAllowance",
      "outputs": [
        {
          "internalType": "bool",
          "name": "",
          "type": "bool"
        }
      ],
      "stateMutability": "nonpayable",
      "type": "function"
    },
    {
      "inputs": [
        {
          "internalType": "address",
          "name": "spender",
          "type": "address"
        },
        {
          "internalType": "uint256",
          "name": "addedValue",
          "type": "uint256"
        }
      ],
      "name": "increaseAllowance",
      "outputs": [
        {
          "internalType": "bool",
          "name": "",
          "type": "bool"
        }
      ],
      "stateMutability": "nonpayable",
      "type": "function"
    },
    {
      "inputs": [],
      "name": "name",
      "outputs": [
        {
          "internalType": "string",
          "name": "",
          "type": "string"
        }
      ],
      "stateMutability": "view",
      "type": "function"
    },
    {
      "inputs": [
        {
          "internalType": "uint256",
          "name": "_amountINA",
          "type": "uint256"
        },
        {
          "internalType": "uint256",
          "name": "_paymentChoice",
          "type": "uint256"
        }
      ],
      "name": "privateSaleBuy",
      "outputs": [],
      "stateMutability": "nonpayable",
      "type": "function"
    },
    {
      "inputs": [],
      "name": "privateSaleLock",
      "outputs": [],
      "stateMutability": "nonpayable",
      "type": "function"
    },
    {
      "inputs": [],
      "name": "privateSaleUnlock",
      "outputs": [],
      "stateMutability": "nonpayable",
      "type": "function"
    },
    {
      "inputs": [
        {
          "internalType": "address",
          "name": "_address",
          "type": "address"
        }
      ],
      "name": "removeFromBlacklist",
      "outputs": [],
      "stateMutability": "nonpayable",
      "type": "function"
    },
    {
      "inputs": [],
      "name": "symbol",
      "outputs": [
        {
          "internalType": "string",
          "name": "",
          "type": "string"
        }
      ],
      "stateMutability": "view",
      "type": "function"
    },
    {
      "inputs": [],
      "name": "totalSupply",
      "outputs": [
        {
          "internalType": "uint256",
          "name": "",
          "type": "uint256"
        }
      ],
      "stateMutability": "view",
      "type": "function"
    },
    {
      "inputs": [
        {
          "internalType": "address",
          "name": "to",
          "type": "address"
        },
        {
          "internalType": "uint256",
          "name": "amount",
          "type": "uint256"
        }
      ],
      "name": "transfer",
      "outputs": [
        {
          "internalType": "bool",
          "name": "",
          "type": "bool"
        }
      ],
      "stateMutability": "nonpayable",
      "type": "function"
    },
    {
      "inputs": [
        {
          "internalType": "address",
          "name": "from",
          "type": "address"
        },
        {
          "internalType": "address",
          "name": "to",
          "type": "address"
        },
        {
          "internalType": "uint256",
          "name": "amount",
          "type": "uint256"
        }
      ],
      "name": "transferFrom",
      "outputs": [
        {
          "internalType": "bool",
          "name": "",
          "type": "bool"
        }
      ],
      "stateMutability": "nonpayable",
      "type": "function"
    }
  ],
  "bytecode": "0x60806040526000601060146101000a81548160ff0219169083151502179055503480156200002c57600080fd5b5060405162002fa438038062002fa4833981810160405281019062000052919062000a06565b6040518060400160405280600b81526020017f494e414e4920746f6b656e0000000000000000000000000000000000000000008152506040518060400160405280600381526020017f494e4100000000000000000000000000000000000000000000000000000000008152508160039081620000cf919062000cb2565b508060049081620000e1919062000cb2565b5032600660006101000a81548173ffffffffffffffffffffffffffffffffffffffff021916908373ffffffffffffffffffffffffffffffffffffffff160217905550505033601060006101000a81548173ffffffffffffffffffffffffffffffffffffffff021916908373ffffffffffffffffffffffffffffffffffffffff1602179055507370997970c51812dc3a010c7d01b50e0d17dc79c8600760006101000a81548173ffffffffffffffffffffffffffffffffffffffff021916908373ffffffffffffffffffffffffffffffffffffffff160217905550733c44cdddb6a900fa2b585dd299e03d12fa4293bc600860006101000a81548173ffffffffffffffffffffffffffffffffffffffff021916908373ffffffffffffffffffffffffffffffffffffffff1602179055507390f79bf6eb2c4f870365e785982e1f101e93b906600960006101000a81548173ffffffffffffffffffffffffffffffffffffffff021916908373ffffffffffffffffffffffffffffffffffffffff1602179055507315d34aaf54267db7d7c367839aaf71a00a2c6a65600a60006101000a81548173ffffffffffffffffffffffffffffffffffffffff021916908373ffffffffffffffffffffffffffffffffffffffff160217905550739965507d1a55bcc2695c58ba16fb37d819b0a4dc600b60006101000a81548173ffffffffffffffffffffffffffffffffffffffff021916908373ffffffffffffffffffffffffffffffffffffffff16021790555073976ea74026e726554db657fa54763abd0c3a0aa9600c60006101000a81548173ffffffffffffffffffffffffffffffffffffffff021916908373ffffffffffffffffffffffffffffffffffffffff1602179055507314dc79964da2c08b23698b3d3cc7ca32193d9955600d60006101000a81548173ffffffffffffffffffffffffffffffffffffffff021916908373ffffffffffffffffffffffffffffffffffffffff1602179055507323618e81e3f5cdf7f54c3d65f7fbc0abf5b21e8f600e60006101000a81548173ffffffffffffffffffffffffffffffffffffffff021916908373ffffffffffffffffffffffffffffffffffffffff16021790555073a0ee7a142d267c1f36714e4a8f75612f20a79720600f60006101000a81548173ffffffffffffffffffffffffffffffffffffffff021916908373ffffffffffffffffffffffffffffffffffffffff16021790555080601160006101000a81548173ffffffffffffffffffffffffffffffffffffffff021916908373ffffffffffffffffffffffffffffffffffffffff16021790555062000506600760009054906101000a900473ffffffffffffffffffffffffffffffffffffffff16620004db6200081c60201b60201c565b600a620004e9919062000f29565b63055d4a80620004fa919062000f7a565b6200082560201b60201c565b62000568600860009054906101000a900473ffffffffffffffffffffffffffffffffffffffff166200053d6200081c60201b60201c565b600a6200054b919062000f29565b6308f0d1806200055c919062000f7a565b6200082560201b60201c565b620005ca600960009054906101000a900473ffffffffffffffffffffffffffffffffffffffff166200059f6200081c60201b60201c565b600a620005ad919062000f29565b6305f5e100620005be919062000f7a565b6200082560201b60201c565b6200062c600a60009054906101000a900473ffffffffffffffffffffffffffffffffffffffff16620006016200081c60201b60201c565b600a6200060f919062000f29565b630a21fe8062000620919062000f7a565b6200082560201b60201c565b6200068e600b60009054906101000a900473ffffffffffffffffffffffffffffffffffffffff16620006636200081c60201b60201c565b600a62000671919062000f29565b6305f5e10062000682919062000f7a565b6200082560201b60201c565b620006ef600c60009054906101000a900473ffffffffffffffffffffffffffffffffffffffff16620006c56200081c60201b60201c565b600a620006d3919062000f29565b62989680620006e3919062000f7a565b6200082560201b60201c565b62000751600d60009054906101000a900473ffffffffffffffffffffffffffffffffffffffff16620007266200081c60201b60201c565b600a62000734919062000f29565b630989680062000745919062000f7a565b6200082560201b60201c565b620007b3600e60009054906101000a900473ffffffffffffffffffffffffffffffffffffffff16620007886200081c60201b60201c565b600a62000796919062000f29565b6305f5e100620007a7919062000f7a565b6200082560201b60201c565b62000815600f60009054906101000a900473ffffffffffffffffffffffffffffffffffffffff16620007ea6200081c60201b60201c565b600a620007f8919062000f29565b6303473bc062000809919062000f7a565b6200082560201b60201c565b50620010b1565b60006012905090565b600073ffffffffffffffffffffffffffffffffffffffff168273ffffffffffffffffffffffffffffffffffffffff160362000897576040517f08c379a00000000000000000000000000000000000000000000000000000000081526004016200088e9062001026565b60405180910390fd5b620008ab600083836200099260201b60201c565b8060026000828254620008bf919062001048565b92505081905550806000808473ffffffffffffffffffffffffffffffffffffffff1673ffffffffffffffffffffffffffffffffffffffff168152602001908152602001600020600082825401925050819055508173ffffffffffffffffffffffffffffffffffffffff16600073ffffffffffffffffffffffffffffffffffffffff167fddf252ad1be2c89b69c2b068fc378daa952ba7f163c4a11628f55a4df523b3ef8360405162000972919062001094565b60405180910390a36200098e600083836200099760201b60201c565b5050565b505050565b505050565b600080fd5b600073ffffffffffffffffffffffffffffffffffffffff82169050919050565b6000620009ce82620009a1565b9050919050565b620009e081620009c1565b8114620009ec57600080fd5b50565b60008151905062000a0081620009d5565b92915050565b60006020828403121562000a1f5762000a1e6200099c565b5b600062000a2f84828501620009ef565b91505092915050565b600081519050919050565b7f4e487b7100000000000000000000000000000000000000000000000000000000600052604160045260246000fd5b7f4e487b7100000000000000000000000000000000000000000000000000000000600052602260045260246000fd5b6000600282049050600182168062000aba57607f821691505b60208210810362000ad05762000acf62000a72565b5b50919050565b60008190508160005260206000209050919050565b60006020601f8301049050919050565b600082821b905092915050565b60006008830262000b3a7fffffffffffffffffffffffffffffffffffffffffffffffffffffffffffffffff8262000afb565b62000b46868362000afb565b95508019841693508086168417925050509392505050565b6000819050919050565b6000819050919050565b600062000b9362000b8d62000b878462000b5e565b62000b68565b62000b5e565b9050919050565b6000819050919050565b62000baf8362000b72565b62000bc762000bbe8262000b9a565b84845462000b08565b825550505050565b600090565b62000bde62000bcf565b62000beb81848462000ba4565b505050565b5b8181101562000c135762000c0760008262000bd4565b60018101905062000bf1565b5050565b601f82111562000c625762000c2c8162000ad6565b62000c378462000aeb565b8101602085101562000c47578190505b62000c5f62000c568562000aeb565b83018262000bf0565b50505b505050565b600082821c905092915050565b600062000c876000198460080262000c67565b1980831691505092915050565b600062000ca2838362000c74565b9150826002028217905092915050565b62000cbd8262000a38565b67ffffffffffffffff81111562000cd95762000cd862000a43565b5b62000ce5825462000aa1565b62000cf282828562000c17565b600060209050601f83116001811462000d2a576000841562000d15578287015190505b62000d21858262000c94565b86555062000d91565b601f19841662000d3a8662000ad6565b60005b8281101562000d645784890151825560018201915060208501945060208101905062000d3d565b8683101562000d84578489015162000d80601f89168262000c74565b8355505b6001600288020188555050505b505050505050565b7f4e487b7100000000000000000000000000000000000000000000000000000000600052601160045260246000fd5b60008160011c9050919050565b6000808291508390505b600185111562000e275780860481111562000dff5762000dfe62000d99565b5b600185161562000e0f5780820291505b808102905062000e1f8562000dc8565b945062000ddf565b94509492505050565b60008262000e42576001905062000f15565b8162000e52576000905062000f15565b816001811462000e6b576002811462000e765762000eac565b600191505062000f15565b60ff84111562000e8b5762000e8a62000d99565b5b8360020a91508482111562000ea55762000ea462000d99565b5b5062000f15565b5060208310610133831016604e8410600b841016171562000ee65782820a90508381111562000ee05762000edf62000d99565b5b62000f15565b62000ef5848484600162000dd5565b9250905081840481111562000f0f5762000f0e62000d99565b5b81810290505b9392505050565b600060ff82169050919050565b600062000f368262000b5e565b915062000f438362000f1c565b925062000f727fffffffffffffffffffffffffffffffffffffffffffffffffffffffffffffffff848462000e30565b905092915050565b600062000f878262000b5e565b915062000f948362000b5e565b925082820262000fa48162000b5e565b9150828204841483151762000fbe5762000fbd62000d99565b5b5092915050565b600082825260208201905092915050565b7f45524332303a206d696e7420746f20746865207a65726f206164647265737300600082015250565b60006200100e601f8362000fc5565b91506200101b8262000fd6565b602082019050919050565b60006020820190508181036000830152620010418162000fff565b9050919050565b6000620010558262000b5e565b9150620010628362000b5e565b92508282019050808211156200107d576200107c62000d99565b5b92915050565b6200108e8162000b5e565b82525050565b6000602082019050620010ab600083018462001083565b92915050565b611ee380620010c16000396000f3fe608060405234801561001057600080fd5b506004361061010b5760003560e01c80634566809a116100a25780638e8cc9ce116100715780638e8cc9ce146102a657806395d89b41146102b0578063a457c2d7146102ce578063a9059cbb146102fe578063dd62ed3e1461032e5761010b565b80634566809a14610234578063537df3b61461025057806370a082311461026c5780637a775a2e1461029c5761010b565b80632c7ffb68116100de5780632c7ffb68146101ac578063313ce567146101ca57806333048e9f146101e857806339509351146102045761010b565b806306fdde0314610110578063095ea7b31461012e57806318160ddd1461015e57806323b872dd1461017c575b600080fd5b61011861035e565b6040516101259190611426565b60405180910390f35b610148600480360381019061014391906114e1565b6103f0565b604051610155919061153c565b60405180910390f35b610166610413565b6040516101739190611566565b60405180910390f35b61019660048036038101906101919190611581565b61041d565b6040516101a3919061153c565b60405180910390f35b6101b461054c565b6040516101c191906115e3565b60405180910390f35b6101d2610572565b6040516101df919061161a565b60405180910390f35b61020260048036038101906101fd9190611635565b61057b565b005b61021e600480360381019061021991906114e1565b610857565b60405161022b919061153c565b60405180910390f35b61024e60048036038101906102499190611675565b61088e565b005b61026a60048036038101906102659190611675565b610979565b005b61028660048036038101906102819190611675565b610a64565b6040516102939190611566565b60405180910390f35b6102a4610aac565b005b6102ae610b59565b005b6102b8610c06565b6040516102c59190611426565b60405180910390f35b6102e860048036038101906102e391906114e1565b610c98565b6040516102f5919061153c565b60405180910390f35b610318600480360381019061031391906114e1565b610d0f565b604051610325919061153c565b60405180910390f35b610348600480360381019061034391906116a2565b610e32565b6040516103559190611566565b60405180910390f35b60606003805461036d90611711565b80601f016020809104026020016040519081016040528092919081815260200182805461039990611711565b80156103e65780601f106103bb576101008083540402835291602001916103e6565b820191906000526020600020905b8154815290600101906020018083116103c957829003601f168201915b5050505050905090565b6000806103fb610eb9565b9050610408818585610ec1565b600191505092915050565b6000600254905090565b6000600560003373ffffffffffffffffffffffffffffffffffffffff1673ffffffffffffffffffffffffffffffffffffffff16815260200190815260200160002060009054906101000a900460ff16156104ac576040517f08c379a00000000000000000000000000000000000000000000000000000000081526004016104a39061178e565b60405180910390fd5b600660009054906101000a900473ffffffffffffffffffffffffffffffffffffffff1673ffffffffffffffffffffffffffffffffffffffff163373ffffffffffffffffffffffffffffffffffffffff1603610545576301da9c004261051191906117dd565b42101561051d57600080fd5b6000610527610eb9565b905061053485828561108a565b61053f858585611116565b60019150505b9392505050565b600660009054906101000a900473ffffffffffffffffffffffffffffffffffffffff1681565b60006012905090565b62ed4e004261058a91906117dd565b42111561059657600080fd5b601060149054906101000a900460ff166105e5576040517f08c379a00000000000000000000000000000000000000000000000000000000081526004016105dc9061185d565b60405180910390fd5b6000339050600a8203610851576000601160009054906101000a900473ffffffffffffffffffffffffffffffffffffffff16905060006702386f26fc100000905060008186610634919061187d565b90506000670de0b6b3a76400008761064c919061187d565b9050818473ffffffffffffffffffffffffffffffffffffffff166370a08231876040518263ffffffff1660e01b815260040161068891906115e3565b602060405180830381865afa1580156106a5573d6000803e3d6000fd5b505050506040513d601f19601f820116820180604052508101906106c991906118d4565b101561070a576040517f08c379a00000000000000000000000000000000000000000000000000000000081526004016107019061194d565b60405180910390fd5b6000610737600760009054906101000a900473ffffffffffffffffffffffffffffffffffffffff16610a64565b11610777576040517f08c379a000000000000000000000000000000000000000000000000000000000815260040161076e906119b9565b60405180910390fd5b8373ffffffffffffffffffffffffffffffffffffffff166323b872dd86600760009054906101000a900473ffffffffffffffffffffffffffffffffffffffff16856040518463ffffffff1660e01b81526004016107d6939291906119d9565b6020604051808303816000875af11580156107f5573d6000803e3d6000fd5b505050506040513d601f19601f820116820180604052508101906108199190611a3c565b50610847600760009054906101000a900473ffffffffffffffffffffffffffffffffffffffff16868361041d565b5050505050610852565b5b505050565b600080610862610eb9565b90506108838185856108748589610e32565b61087e91906117dd565b610ec1565b600191505092915050565b601060009054906101000a900473ffffffffffffffffffffffffffffffffffffffff1673ffffffffffffffffffffffffffffffffffffffff163373ffffffffffffffffffffffffffffffffffffffff161461091e576040517f08c379a000000000000000000000000000000000000000000000000000000000815260040161091590611ab5565b60405180910390fd5b6001600560008373ffffffffffffffffffffffffffffffffffffffff1673ffffffffffffffffffffffffffffffffffffffff16815260200190815260200160002060006101000a81548160ff02191690831515021790555050565b601060009054906101000a900473ffffffffffffffffffffffffffffffffffffffff1673ffffffffffffffffffffffffffffffffffffffff163373ffffffffffffffffffffffffffffffffffffffff1614610a09576040517f08c379a0000000000000000000000000000000000000000000000000000000008152600401610a0090611ab5565b60405180910390fd5b6000600560008373ffffffffffffffffffffffffffffffffffffffff1673ffffffffffffffffffffffffffffffffffffffff16815260200190815260200160002060006101000a81548160ff02191690831515021790555050565b60008060008373ffffffffffffffffffffffffffffffffffffffff1673ffffffffffffffffffffffffffffffffffffffff168152602001908152602001600020549050919050565b601060009054906101000a900473ffffffffffffffffffffffffffffffffffffffff1673ffffffffffffffffffffffffffffffffffffffff163373ffffffffffffffffffffffffffffffffffffffff1614610b3c576040517f08c379a0000000000000000000000000000000000000000000000000000000008152600401610b3390611ab5565b60405180910390fd5b6000601060146101000a81548160ff021916908315150217905550565b601060009054906101000a900473ffffffffffffffffffffffffffffffffffffffff1673ffffffffffffffffffffffffffffffffffffffff163373ffffffffffffffffffffffffffffffffffffffff1614610be9576040517f08c379a0000000000000000000000000000000000000000000000000000000008152600401610be090611ab5565b60405180910390fd5b6001601060146101000a81548160ff021916908315150217905550565b606060048054610c1590611711565b80601f0160208091040260200160405190810160405280929190818152602001828054610c4190611711565b8015610c8e5780601f10610c6357610100808354040283529160200191610c8e565b820191906000526020600020905b815481529060010190602001808311610c7157829003601f168201915b5050505050905090565b600080610ca3610eb9565b90506000610cb18286610e32565b905083811015610cf6576040517f08c379a0000000000000000000000000000000000000000000000000000000008152600401610ced90611b47565b60405180910390fd5b610d038286868403610ec1565b60019250505092915050565b6000600560003373ffffffffffffffffffffffffffffffffffffffff1673ffffffffffffffffffffffffffffffffffffffff16815260200190815260200160002060009054906101000a900460ff1615610d9e576040517f08c379a0000000000000000000000000000000000000000000000000000000008152600401610d959061178e565b60405180910390fd5b600660009054906101000a900473ffffffffffffffffffffffffffffffffffffffff1673ffffffffffffffffffffffffffffffffffffffff163373ffffffffffffffffffffffffffffffffffffffff1603610e2c576301da9c0042610e0391906117dd565b421015610e0f57600080fd5b6000610e19610eb9565b9050610e26818585611116565b60019150505b92915050565b6000600160008473ffffffffffffffffffffffffffffffffffffffff1673ffffffffffffffffffffffffffffffffffffffff16815260200190815260200160002060008373ffffffffffffffffffffffffffffffffffffffff1673ffffffffffffffffffffffffffffffffffffffff16815260200190815260200160002054905092915050565b600033905090565b600073ffffffffffffffffffffffffffffffffffffffff168373ffffffffffffffffffffffffffffffffffffffff1603610f30576040517f08c379a0000000000000000000000000000000000000000000000000000000008152600401610f2790611bd9565b60405180910390fd5b600073ffffffffffffffffffffffffffffffffffffffff168273ffffffffffffffffffffffffffffffffffffffff1603610f9f576040517f08c379a0000000000000000000000000000000000000000000000000000000008152600401610f9690611c6b565b60405180910390fd5b80600160008573ffffffffffffffffffffffffffffffffffffffff1673ffffffffffffffffffffffffffffffffffffffff16815260200190815260200160002060008473ffffffffffffffffffffffffffffffffffffffff1673ffffffffffffffffffffffffffffffffffffffff168152602001908152602001600020819055508173ffffffffffffffffffffffffffffffffffffffff168373ffffffffffffffffffffffffffffffffffffffff167f8c5be1e5ebec7d5bd14f71427d1e84f3dd0314c0f7b2291e5b200ac8c7c3b9258360405161107d9190611566565b60405180910390a3505050565b60006110968484610e32565b90507fffffffffffffffffffffffffffffffffffffffffffffffffffffffffffffffff81146111105781811015611102576040517f08c379a00000000000000000000000000000000000000000000000000000000081526004016110f990611cd7565b60405180910390fd5b61110f8484848403610ec1565b5b50505050565b600073ffffffffffffffffffffffffffffffffffffffff168373ffffffffffffffffffffffffffffffffffffffff1603611185576040517f08c379a000000000000000000000000000000000000000000000000000000000815260040161117c90611d69565b60405180910390fd5b600073ffffffffffffffffffffffffffffffffffffffff168273ffffffffffffffffffffffffffffffffffffffff16036111f4576040517f08c379a00000000000000000000000000000000000000000000000000000000081526004016111eb90611dfb565b60405180910390fd5b6111ff83838361138c565b60008060008573ffffffffffffffffffffffffffffffffffffffff1673ffffffffffffffffffffffffffffffffffffffff16815260200190815260200160002054905081811015611285576040517f08c379a000000000000000000000000000000000000000000000000000000000815260040161127c90611e8d565b60405180910390fd5b8181036000808673ffffffffffffffffffffffffffffffffffffffff1673ffffffffffffffffffffffffffffffffffffffff16815260200190815260200160002081905550816000808573ffffffffffffffffffffffffffffffffffffffff1673ffffffffffffffffffffffffffffffffffffffff168152602001908152602001600020600082825401925050819055508273ffffffffffffffffffffffffffffffffffffffff168473ffffffffffffffffffffffffffffffffffffffff167fddf252ad1be2c89b69c2b068fc378daa952ba7f163c4a11628f55a4df523b3ef846040516113739190611566565b60405180910390a3611386848484611391565b50505050565b505050565b505050565b600081519050919050565b600082825260208201905092915050565b60005b838110156113d05780820151818401526020810190506113b5565b60008484015250505050565b6000601f19601f8301169050919050565b60006113f882611396565b61140281856113a1565b93506114128185602086016113b2565b61141b816113dc565b840191505092915050565b6000602082019050818103600083015261144081846113ed565b905092915050565b600080fd5b600073ffffffffffffffffffffffffffffffffffffffff82169050919050565b60006114788261144d565b9050919050565b6114888161146d565b811461149357600080fd5b50565b6000813590506114a58161147f565b92915050565b6000819050919050565b6114be816114ab565b81146114c957600080fd5b50565b6000813590506114db816114b5565b92915050565b600080604083850312156114f8576114f7611448565b5b600061150685828601611496565b9250506020611517858286016114cc565b9150509250929050565b60008115159050919050565b61153681611521565b82525050565b6000602082019050611551600083018461152d565b92915050565b611560816114ab565b82525050565b600060208201905061157b6000830184611557565b92915050565b60008060006060848603121561159a57611599611448565b5b60006115a886828701611496565b93505060206115b986828701611496565b92505060406115ca868287016114cc565b9150509250925092565b6115dd8161146d565b82525050565b60006020820190506115f860008301846115d4565b92915050565b600060ff82169050919050565b611614816115fe565b82525050565b600060208201905061162f600083018461160b565b92915050565b6000806040838503121561164c5761164b611448565b5b600061165a858286016114cc565b925050602061166b858286016114cc565b9150509250929050565b60006020828403121561168b5761168a611448565b5b600061169984828501611496565b91505092915050565b600080604083850312156116b9576116b8611448565b5b60006116c785828601611496565b92505060206116d885828601611496565b9150509250929050565b7f4e487b7100000000000000000000000000000000000000000000000000000000600052602260045260246000fd5b6000600282049050600182168061172957607f821691505b60208210810361173c5761173b6116e2565b5b50919050565b7f4552524f523a20596f7520617265206f6e2074686520426c61636b6c69737400600082015250565b6000611778601f836113a1565b915061178382611742565b602082019050919050565b600060208201905081810360008301526117a78161176b565b9050919050565b7f4e487b7100000000000000000000000000000000000000000000000000000000600052601160045260246000fd5b60006117e8826114ab565b91506117f3836114ab565b925082820190508082111561180b5761180a6117ae565b5b92915050565b7f4552524f523a20507269766174652073616c65204c6f636b6564000000000000600082015250565b6000611847601a836113a1565b915061185282611811565b602082019050919050565b600060208201905081810360008301526118768161183a565b9050919050565b6000611888826114ab565b9150611893836114ab565b92508282026118a1816114ab565b915082820484148315176118b8576118b76117ae565b5b5092915050565b6000815190506118ce816114b5565b92915050565b6000602082840312156118ea576118e9611448565b5b60006118f8848285016118bf565b91505092915050565b7f4552524f523a204e6f2062616c616e6365207573647400000000000000000000600082015250565b60006119376016836113a1565b915061194282611901565b602082019050919050565b600060208201905081810360008301526119668161192a565b9050919050565b7f4552524f523a20536f6c64206f66662f66696e69736800000000000000000000600082015250565b60006119a36016836113a1565b91506119ae8261196d565b602082019050919050565b600060208201905081810360008301526119d281611996565b9050919050565b60006060820190506119ee60008301866115d4565b6119fb60208301856115d4565b611a086040830184611557565b949350505050565b611a1981611521565b8114611a2457600080fd5b50565b600081519050611a3681611a10565b92915050565b600060208284031215611a5257611a51611448565b5b6000611a6084828501611a27565b91505092915050565b7f4552524f523a20596f75277265206e6f7420746865206f776e65720000000000600082015250565b6000611a9f601b836113a1565b9150611aaa82611a69565b602082019050919050565b60006020820190508181036000830152611ace81611a92565b9050919050565b7f45524332303a2064656372656173656420616c6c6f77616e63652062656c6f7760008201527f207a65726f000000000000000000000000000000000000000000000000000000602082015250565b6000611b316025836113a1565b9150611b3c82611ad5565b604082019050919050565b60006020820190508181036000830152611b6081611b24565b9050919050565b7f45524332303a20617070726f76652066726f6d20746865207a65726f2061646460008201527f7265737300000000000000000000000000000000000000000000000000000000602082015250565b6000611bc36024836113a1565b9150611bce82611b67565b604082019050919050565b60006020820190508181036000830152611bf281611bb6565b9050919050565b7f45524332303a20617070726f766520746f20746865207a65726f20616464726560008201527f7373000000000000000000000000000000000000000000000000000000000000602082015250565b6000611c556022836113a1565b9150611c6082611bf9565b604082019050919050565b60006020820190508181036000830152611c8481611c48565b9050919050565b7f45524332303a20696e73756666696369656e7420616c6c6f77616e6365000000600082015250565b6000611cc1601d836113a1565b9150611ccc82611c8b565b602082019050919050565b60006020820190508181036000830152611cf081611cb4565b9050919050565b7f45524332303a207472616e736665722066726f6d20746865207a65726f20616460008201527f6472657373000000000000000000000000000000000000000000000000000000602082015250565b6000611d536025836113a1565b9150611d5e82611cf7565b604082019050919050565b60006020820190508181036000830152611d8281611d46565b9050919050565b7f45524332303a207472616e7366657220746f20746865207a65726f206164647260008201527f6573730000000000000000000000000000000000000000000000000000000000602082015250565b6000611de56023836113a1565b9150611df082611d89565b604082019050919050565b60006020820190508181036000830152611e1481611dd8565b9050919050565b7f45524332303a207472616e7366657220616d6f756e742065786365656473206260008201527f616c616e63650000000000000000000000000000000000000000000000000000602082015250565b6000611e776026836113a1565b9150611e8282611e1b565b604082019050919050565b60006020820190508181036000830152611ea681611e6a565b905091905056fea26469706673582212202708fb7567bccb0a4f09b75b96d56b03d12872cf61c58d8b6da13bcf7ab794d764736f6c63430008110033",
  "linkReferences": {},
  "deployedLinkReferences": {}
}