{
  "_format": "hh-sol-artifact-1",
  "contractName": "PaymentSplitter",
  "sourceName": "contracts/@openzeppelin/contracts/finance/PaymentSplitter.sol",
  "abi": [
    {
      "inputs": [
        {
          "internalType": "address[]",
          "name": "payees",
          "type": "address[]"
        },
        {
          "internalType": "uint256[]",
          "name": "shares_",
          "type": "uint256[]"
        }
      ],
      "stateMutability": "payable",
      "type": "constructor"
    },
    {
      "anonymous": false,
      "inputs": [
        {
          "indexed": true,
          "internalType": "contract IERC20",
          "name": "token",
          "type": "address"
        },
        {
          "indexed": false,
          "internalType": "address",
          "name": "to",
          "type": "address"
        },
        {
          "indexed": false,
          "internalType": "uint256",
          "name": "amount",
          "type": "uint256"
        }
      ],
      "name": "ERC20PaymentReleased",
      "type": "event"
    },
    {
      "anonymous": false,
      "inputs": [
        {
          "indexed": false,
          "internalType": "address",
          "name": "account",
          "type": "address"
        },
        {
          "indexed": false,
          "internalType": "uint256",
          "name": "shares",
          "type": "uint256"
        }
      ],
      "name": "PayeeAdded",
      "type": "event"
    },
    {
      "anonymous": false,
      "inputs": [
        {
          "indexed": false,
          "internalType": "address",
          "name": "from",
          "type": "address"
        },
        {
          "indexed": false,
          "internalType": "uint256",
          "name": "amount",
          "type": "uint256"
        }
      ],
      "name": "PaymentReceived",
      "type": "event"
    },
    {
      "anonymous": false,
      "inputs": [
        {
          "indexed": false,
          "internalType": "address",
          "name": "to",
          "type": "address"
        },
        {
          "indexed": false,
          "internalType": "uint256",
          "name": "amount",
          "type": "uint256"
        }
      ],
      "name": "PaymentReleased",
      "type": "event"
    },
    {
      "inputs": [
        {
          "internalType": "uint256",
          "name": "index",
          "type": "uint256"
        }
      ],
      "name": "payee",
      "outputs": [
        {
          "internalType": "address",
          "name": "",
          "type": "address"
        }
      ],
      "stateMutability": "view",
      "type": "function"
    },
    {
      "inputs": [
        {
          "internalType": "address",
          "name": "account",
          "type": "address"
        }
      ],
      "name": "releasable",
      "outputs": [
        {
          "internalType": "uint256",
          "name": "",
          "type": "uint256"
        }
      ],
      "stateMutability": "view",
      "type": "function"
    },
    {
      "inputs": [
        {
          "internalType": "contract IERC20",
          "name": "token",
          "type": "address"
        },
        {
          "internalType": "address",
          "name": "account",
          "type": "address"
        }
      ],
      "name": "releasable",
      "outputs": [
        {
          "internalType": "uint256",
          "name": "",
          "type": "uint256"
        }
      ],
      "stateMutability": "view",
      "type": "function"
    },
    {
      "inputs": [
        {
          "internalType": "address payable",
          "name": "account",
          "type": "address"
        }
      ],
      "name": "release",
      "outputs": [],
      "stateMutability": "nonpayable",
      "type": "function"
    },
    {
      "inputs": [
        {
          "internalType": "contract IERC20",
          "name": "token",
          "type": "address"
        },
        {
          "internalType": "address",
          "name": "account",
          "type": "address"
        }
      ],
      "name": "release",
      "outputs": [],
      "stateMutability": "nonpayable",
      "type": "function"
    },
    {
      "inputs": [
        {
          "internalType": "contract IERC20",
          "name": "token",
          "type": "address"
        },
        {
          "internalType": "address",
          "name": "account",
          "type": "address"
        }
      ],
      "name": "released",
      "outputs": [
        {
          "internalType": "uint256",
          "name": "",
          "type": "uint256"
        }
      ],
      "stateMutability": "view",
      "type": "function"
    },
    {
      "inputs": [
        {
          "internalType": "address",
          "name": "account",
          "type": "address"
        }
      ],
      "name": "released",
      "outputs": [
        {
          "internalType": "uint256",
          "name": "",
          "type": "uint256"
        }
      ],
      "stateMutability": "view",
      "type": "function"
    },
    {
      "inputs": [
        {
          "internalType": "address",
          "name": "account",
          "type": "address"
        }
      ],
      "name": "shares",
      "outputs": [
        {
          "internalType": "uint256",
          "name": "",
          "type": "uint256"
        }
      ],
      "stateMutability": "view",
      "type": "function"
    },
    {
      "inputs": [
        {
          "internalType": "contract IERC20",
          "name": "token",
          "type": "address"
        }
      ],
      "name": "totalReleased",
      "outputs": [
        {
          "internalType": "uint256",
          "name": "",
          "type": "uint256"
        }
      ],
      "stateMutability": "view",
      "type": "function"
    },
    {
      "inputs": [],
      "name": "totalReleased",
      "outputs": [
        {
          "internalType": "uint256",
          "name": "",
          "type": "uint256"
        }
      ],
      "stateMutability": "view",
      "type": "function"
    },
    {
      "inputs": [],
      "name": "totalShares",
      "outputs": [
        {
          "internalType": "uint256",
          "name": "",
          "type": "uint256"
        }
      ],
      "stateMutability": "view",
      "type": "function"
    },
    {
      "stateMutability": "payable",
      "type": "receive"
    }
  ],
  "bytecode": "0x60806040526040516200233238038062002332833981810160405281019062000029919062000667565b805182511462000070576040517f08c379a0000000000000000000000000000000000000000000000000000000008152600401620000679062000773565b60405180910390fd5b6000825111620000b7576040517f08c379a0000000000000000000000000000000000000000000000000000000008152600401620000ae90620007e5565b60405180910390fd5b60005b8251811015620001265762000110838281518110620000de57620000dd62000807565b5b6020026020010151838381518110620000fc57620000fb62000807565b5b60200260200101516200012f60201b60201c565b80806200011d9062000865565b915050620000ba565b50505062000ade565b600073ffffffffffffffffffffffffffffffffffffffff168273ffffffffffffffffffffffffffffffffffffffff1603620001a1576040517f08c379a0000000000000000000000000000000000000000000000000000000008152600401620001989062000928565b60405180910390fd5b60008111620001e7576040517f08c379a0000000000000000000000000000000000000000000000000000000008152600401620001de906200099a565b60405180910390fd5b6000600260008473ffffffffffffffffffffffffffffffffffffffff1673ffffffffffffffffffffffffffffffffffffffff16815260200190815260200160002054146200026c576040517f08c379a0000000000000000000000000000000000000000000000000000000008152600401620002639062000a32565b60405180910390fd5b6004829080600181540180825580915050600190039060005260206000200160009091909190916101000a81548173ffffffffffffffffffffffffffffffffffffffff021916908373ffffffffffffffffffffffffffffffffffffffff16021790555080600260008473ffffffffffffffffffffffffffffffffffffffff1673ffffffffffffffffffffffffffffffffffffffff168152602001908152602001600020819055508060005462000323919062000a54565b6000819055507f40c340f65e17194d14ddddb073d3c9f888e3cb52b5aae0c6c7706b4fbc905fac82826040516200035c92919062000ab1565b60405180910390a15050565b6000604051905090565b600080fd5b600080fd5b600080fd5b6000601f19601f8301169050919050565b7f4e487b7100000000000000000000000000000000000000000000000000000000600052604160045260246000fd5b620003cc8262000381565b810181811067ffffffffffffffff82111715620003ee57620003ed62000392565b5b80604052505050565b60006200040362000368565b9050620004118282620003c1565b919050565b600067ffffffffffffffff82111562000434576200043362000392565b5b602082029050602081019050919050565b600080fd5b600073ffffffffffffffffffffffffffffffffffffffff82169050919050565b600062000477826200044a565b9050919050565b62000489816200046a565b81146200049557600080fd5b50565b600081519050620004a9816200047e565b92915050565b6000620004c6620004c08462000416565b620003f7565b90508083825260208201905060208402830185811115620004ec57620004eb62000445565b5b835b8181101562000519578062000504888262000498565b845260208401935050602081019050620004ee565b5050509392505050565b600082601f8301126200053b576200053a6200037c565b5b81516200054d848260208601620004af565b91505092915050565b600067ffffffffffffffff82111562000574576200057362000392565b5b602082029050602081019050919050565b6000819050919050565b6200059a8162000585565b8114620005a657600080fd5b50565b600081519050620005ba816200058f565b92915050565b6000620005d7620005d18462000556565b620003f7565b90508083825260208201905060208402830185811115620005fd57620005fc62000445565b5b835b818110156200062a5780620006158882620005a9565b845260208401935050602081019050620005ff565b5050509392505050565b600082601f8301126200064c576200064b6200037c565b5b81516200065e848260208601620005c0565b91505092915050565b6000806040838503121562000681576200068062000372565b5b600083015167ffffffffffffffff811115620006a257620006a162000377565b5b620006b08582860162000523565b925050602083015167ffffffffffffffff811115620006d457620006d362000377565b5b620006e28582860162000634565b9150509250929050565b600082825260208201905092915050565b7f5061796d656e7453706c69747465723a2070617965657320616e64207368617260008201527f6573206c656e677468206d69736d617463680000000000000000000000000000602082015250565b60006200075b603283620006ec565b91506200076882620006fd565b604082019050919050565b600060208201905081810360008301526200078e816200074c565b9050919050565b7f5061796d656e7453706c69747465723a206e6f20706179656573000000000000600082015250565b6000620007cd601a83620006ec565b9150620007da8262000795565b602082019050919050565b600060208201905081810360008301526200080081620007be565b9050919050565b7f4e487b7100000000000000000000000000000000000000000000000000000000600052603260045260246000fd5b7f4e487b7100000000000000000000000000000000000000000000000000000000600052601160045260246000fd5b6000620008728262000585565b91507fffffffffffffffffffffffffffffffffffffffffffffffffffffffffffffffff8203620008a757620008a662000836565b5b600182019050919050565b7f5061796d656e7453706c69747465723a206163636f756e74206973207468652060008201527f7a65726f20616464726573730000000000000000000000000000000000000000602082015250565b600062000910602c83620006ec565b91506200091d82620008b2565b604082019050919050565b60006020820190508181036000830152620009438162000901565b9050919050565b7f5061796d656e7453706c69747465723a20736861726573206172652030000000600082015250565b600062000982601d83620006ec565b91506200098f826200094a565b602082019050919050565b60006020820190508181036000830152620009b58162000973565b9050919050565b7f5061796d656e7453706c69747465723a206163636f756e7420616c726561647960008201527f2068617320736861726573000000000000000000000000000000000000000000602082015250565b600062000a1a602b83620006ec565b915062000a2782620009bc565b604082019050919050565b6000602082019050818103600083015262000a4d8162000a0b565b9050919050565b600062000a618262000585565b915062000a6e8362000585565b925082820190508082111562000a895762000a8862000836565b5b92915050565b62000a9a816200046a565b82525050565b62000aab8162000585565b82525050565b600060408201905062000ac8600083018562000a8f565b62000ad7602083018462000aa0565b9392505050565b6118448062000aee6000396000f3fe6080604052600436106100a05760003560e01c80639852595c116100645780639852595c146101e3578063a3f8eace14610220578063c45ac0501461025d578063ce7c2ac21461029a578063d79779b2146102d7578063e33b7de314610314576100e7565b806319165587146100ec5780633a98ef3914610115578063406072a91461014057806348b750441461017d5780638b83209b146101a6576100e7565b366100e7577f6ef95f06320e7a25a04a175ca677b7052bdd97131872c2192525a629f51be7706100ce61033f565b346040516100dd929190610e4e565b60405180910390a1005b600080fd5b3480156100f857600080fd5b50610113600480360381019061010e9190610eba565b610347565b005b34801561012157600080fd5b5061012a6104c6565b6040516101379190610ee7565b60405180910390f35b34801561014c57600080fd5b5061016760048036038101906101629190610f6c565b6104cf565b6040516101749190610ee7565b60405180910390f35b34801561018957600080fd5b506101a4600480360381019061019f9190610f6c565b610556565b005b3480156101b257600080fd5b506101cd60048036038101906101c89190610fd8565b610769565b6040516101da9190611005565b60405180910390f35b3480156101ef57600080fd5b5061020a60048036038101906102059190611020565b6107b1565b6040516102179190610ee7565b60405180910390f35b34801561022c57600080fd5b5061024760048036038101906102429190611020565b6107fa565b6040516102549190610ee7565b60405180910390f35b34801561026957600080fd5b50610284600480360381019061027f9190610f6c565b61082d565b6040516102919190610ee7565b60405180910390f35b3480156102a657600080fd5b506102c160048036038101906102bc9190611020565b6108dc565b6040516102ce9190610ee7565b60405180910390f35b3480156102e357600080fd5b506102fe60048036038101906102f9919061104d565b610925565b60405161030b9190610ee7565b60405180910390f35b34801561032057600080fd5b5061032961096e565b6040516103369190610ee7565b60405180910390f35b600033905090565b6000600260008373ffffffffffffffffffffffffffffffffffffffff1673ffffffffffffffffffffffffffffffffffffffff16815260200190815260200160002054116103c9576040517f08c379a00000000000000000000000000000000000000000000000000000000081526004016103c0906110fd565b60405180910390fd5b60006103d4826107fa565b905060008103610419576040517f08c379a00000000000000000000000000000000000000000000000000000000081526004016104109061118f565b60405180910390fd5b806001600082825461042b91906111de565b9250508190555080600360008473ffffffffffffffffffffffffffffffffffffffff1673ffffffffffffffffffffffffffffffffffffffff168152602001908152602001600020600082825401925050819055506104898282610978565b7fdf20fd1e76bc69d672e4814fafb2c449bba3a5369d8359adf9e05e6fde87b05682826040516104ba929190611271565b60405180910390a15050565b60008054905090565b6000600660008473ffffffffffffffffffffffffffffffffffffffff1673ffffffffffffffffffffffffffffffffffffffff16815260200190815260200160002060008373ffffffffffffffffffffffffffffffffffffffff1673ffffffffffffffffffffffffffffffffffffffff16815260200190815260200160002054905092915050565b6000600260008373ffffffffffffffffffffffffffffffffffffffff1673ffffffffffffffffffffffffffffffffffffffff16815260200190815260200160002054116105d8576040517f08c379a00000000000000000000000000000000000000000000000000000000081526004016105cf906110fd565b60405180910390fd5b60006105e4838361082d565b905060008103610629576040517f08c379a00000000000000000000000000000000000000000000000000000000081526004016106209061118f565b60405180910390fd5b80600560008573ffffffffffffffffffffffffffffffffffffffff1673ffffffffffffffffffffffffffffffffffffffff168152602001908152602001600020600082825461067891906111de565b9250508190555080600660008573ffffffffffffffffffffffffffffffffffffffff1673ffffffffffffffffffffffffffffffffffffffff16815260200190815260200160002060008473ffffffffffffffffffffffffffffffffffffffff1673ffffffffffffffffffffffffffffffffffffffff16815260200190815260200160002060008282540192505081905550610714838383610a6c565b8273ffffffffffffffffffffffffffffffffffffffff167f3be5b7a71e84ed12875d241991c70855ac5817d847039e17a9d895c1ceb0f18a838360405161075c929190610e4e565b60405180910390a2505050565b60006004828154811061077f5761077e61129a565b5b9060005260206000200160009054906101000a900473ffffffffffffffffffffffffffffffffffffffff169050919050565b6000600360008373ffffffffffffffffffffffffffffffffffffffff1673ffffffffffffffffffffffffffffffffffffffff168152602001908152602001600020549050919050565b60008061080561096e565b4761081091906111de565b90506108258382610820866107b1565b610af2565b915050919050565b60008061083984610925565b8473ffffffffffffffffffffffffffffffffffffffff166370a08231306040518263ffffffff1660e01b81526004016108729190611005565b602060405180830381865afa15801561088f573d6000803e3d6000fd5b505050506040513d601f19601f820116820180604052508101906108b391906112de565b6108bd91906111de565b90506108d383826108ce87876104cf565b610af2565b91505092915050565b6000600260008373ffffffffffffffffffffffffffffffffffffffff1673ffffffffffffffffffffffffffffffffffffffff168152602001908152602001600020549050919050565b6000600560008373ffffffffffffffffffffffffffffffffffffffff1673ffffffffffffffffffffffffffffffffffffffff168152602001908152602001600020549050919050565b6000600154905090565b804710156109bb576040517f08c379a00000000000000000000000000000000000000000000000000000000081526004016109b290611357565b60405180910390fd5b60008273ffffffffffffffffffffffffffffffffffffffff16826040516109e1906113a8565b60006040518083038185875af1925050503d8060008114610a1e576040519150601f19603f3d011682016040523d82523d6000602084013e610a23565b606091505b5050905080610a67576040517f08c379a0000000000000000000000000000000000000000000000000000000008152600401610a5e9061142f565b60405180910390fd5b505050565b610aed8363a9059cbb60e01b8484604051602401610a8b929190610e4e565b604051602081830303815290604052907bffffffffffffffffffffffffffffffffffffffffffffffffffffffff19166020820180517bffffffffffffffffffffffffffffffffffffffffffffffffffffffff8381831617835250505050610b60565b505050565b600081600054600260008773ffffffffffffffffffffffffffffffffffffffff1673ffffffffffffffffffffffffffffffffffffffff1681526020019081526020016000205485610b43919061144f565b610b4d91906114c0565b610b5791906114f1565b90509392505050565b6000610bc2826040518060400160405280602081526020017f5361666545524332303a206c6f772d6c6576656c2063616c6c206661696c65648152508573ffffffffffffffffffffffffffffffffffffffff16610c279092919063ffffffff16565b9050600081511115610c225780806020019051810190610be2919061155d565b610c21576040517f08c379a0000000000000000000000000000000000000000000000000000000008152600401610c18906115fc565b60405180910390fd5b5b505050565b6060610c368484600085610c3f565b90509392505050565b606082471015610c84576040517f08c379a0000000000000000000000000000000000000000000000000000000008152600401610c7b9061168e565b60405180910390fd5b6000808673ffffffffffffffffffffffffffffffffffffffff168587604051610cad9190611714565b60006040518083038185875af1925050503d8060008114610cea576040519150601f19603f3d011682016040523d82523d6000602084013e610cef565b606091505b5091509150610d0087838387610d0c565b92505050949350505050565b60608315610d6e576000835103610d6657610d2685610d81565b610d65576040517f08c379a0000000000000000000000000000000000000000000000000000000008152600401610d5c90611777565b60405180910390fd5b5b829050610d79565b610d788383610da4565b5b949350505050565b6000808273ffffffffffffffffffffffffffffffffffffffff163b119050919050565b600082511115610db75781518083602001fd5b806040517f08c379a0000000000000000000000000000000000000000000000000000000008152600401610deb91906117ec565b60405180910390fd5b600073ffffffffffffffffffffffffffffffffffffffff82169050919050565b6000610e1f82610df4565b9050919050565b610e2f81610e14565b82525050565b6000819050919050565b610e4881610e35565b82525050565b6000604082019050610e636000830185610e26565b610e706020830184610e3f565b9392505050565b600080fd5b6000610e8782610df4565b9050919050565b610e9781610e7c565b8114610ea257600080fd5b50565b600081359050610eb481610e8e565b92915050565b600060208284031215610ed057610ecf610e77565b5b6000610ede84828501610ea5565b91505092915050565b6000602082019050610efc6000830184610e3f565b92915050565b6000610f0d82610e14565b9050919050565b610f1d81610f02565b8114610f2857600080fd5b50565b600081359050610f3a81610f14565b92915050565b610f4981610e14565b8114610f5457600080fd5b50565b600081359050610f6681610f40565b92915050565b60008060408385031215610f8357610f82610e77565b5b6000610f9185828601610f2b565b9250506020610fa285828601610f57565b9150509250929050565b610fb581610e35565b8114610fc057600080fd5b50565b600081359050610fd281610fac565b92915050565b600060208284031215610fee57610fed610e77565b5b6000610ffc84828501610fc3565b91505092915050565b600060208201905061101a6000830184610e26565b92915050565b60006020828403121561103657611035610e77565b5b600061104484828501610f57565b91505092915050565b60006020828403121561106357611062610e77565b5b600061107184828501610f2b565b91505092915050565b600082825260208201905092915050565b7f5061796d656e7453706c69747465723a206163636f756e7420686173206e6f2060008201527f7368617265730000000000000000000000000000000000000000000000000000602082015250565b60006110e760268361107a565b91506110f28261108b565b604082019050919050565b60006020820190508181036000830152611116816110da565b9050919050565b7f5061796d656e7453706c69747465723a206163636f756e74206973206e6f742060008201527f647565207061796d656e74000000000000000000000000000000000000000000602082015250565b6000611179602b8361107a565b91506111848261111d565b604082019050919050565b600060208201905081810360008301526111a88161116c565b9050919050565b7f4e487b7100000000000000000000000000000000000000000000000000000000600052601160045260246000fd5b60006111e982610e35565b91506111f483610e35565b925082820190508082111561120c5761120b6111af565b5b92915050565b6000819050919050565b600061123761123261122d84610df4565b611212565b610df4565b9050919050565b60006112498261121c565b9050919050565b600061125b8261123e565b9050919050565b61126b81611250565b82525050565b60006040820190506112866000830185611262565b6112936020830184610e3f565b9392505050565b7f4e487b7100000000000000000000000000000000000000000000000000000000600052603260045260246000fd5b6000815190506112d881610fac565b92915050565b6000602082840312156112f4576112f3610e77565b5b6000611302848285016112c9565b91505092915050565b7f416464726573733a20696e73756666696369656e742062616c616e6365000000600082015250565b6000611341601d8361107a565b915061134c8261130b565b602082019050919050565b6000602082019050818103600083015261137081611334565b9050919050565b600081905092915050565b50565b6000611392600083611377565b915061139d82611382565b600082019050919050565b60006113b382611385565b9150819050919050565b7f416464726573733a20756e61626c6520746f2073656e642076616c75652c207260008201527f6563697069656e74206d61792068617665207265766572746564000000000000602082015250565b6000611419603a8361107a565b9150611424826113bd565b604082019050919050565b600060208201905081810360008301526114488161140c565b9050919050565b600061145a82610e35565b915061146583610e35565b925082820261147381610e35565b9150828204841483151761148a576114896111af565b5b5092915050565b7f4e487b7100000000000000000000000000000000000000000000000000000000600052601260045260246000fd5b60006114cb82610e35565b91506114d683610e35565b9250826114e6576114e5611491565b5b828204905092915050565b60006114fc82610e35565b915061150783610e35565b925082820390508181111561151f5761151e6111af565b5b92915050565b60008115159050919050565b61153a81611525565b811461154557600080fd5b50565b60008151905061155781611531565b92915050565b60006020828403121561157357611572610e77565b5b600061158184828501611548565b91505092915050565b7f5361666545524332303a204552433230206f7065726174696f6e20646964206e60008201527f6f74207375636365656400000000000000000000000000000000000000000000602082015250565b60006115e6602a8361107a565b91506115f18261158a565b604082019050919050565b60006020820190508181036000830152611615816115d9565b9050919050565b7f416464726573733a20696e73756666696369656e742062616c616e636520666f60008201527f722063616c6c0000000000000000000000000000000000000000000000000000602082015250565b600061167860268361107a565b91506116838261161c565b604082019050919050565b600060208201905081810360008301526116a78161166b565b9050919050565b600081519050919050565b60005b838110156116d75780820151818401526020810190506116bc565b60008484015250505050565b60006116ee826116ae565b6116f88185611377565b93506117088185602086016116b9565b80840191505092915050565b600061172082846116e3565b915081905092915050565b7f416464726573733a2063616c6c20746f206e6f6e2d636f6e7472616374000000600082015250565b6000611761601d8361107a565b915061176c8261172b565b602082019050919050565b6000602082019050818103600083015261179081611754565b9050919050565b600081519050919050565b6000601f19601f8301169050919050565b60006117be82611797565b6117c8818561107a565b93506117d88185602086016116b9565b6117e1816117a2565b840191505092915050565b6000602082019050818103600083015261180681846117b3565b90509291505056fea2646970667358221220d637e119260891642ae6ff33be32a51ece8f442314d6269bc42ac30b2919207964736f6c63430008110033",
  "linkReferences": {},
  "deployedLinkReferences": {}
}