{
  "_format": "hh-sol-artifact-1",
  "contractName": "INA",
  "sourceName": "contracts/INAHardhat.sol",
  "abi": [
    {
      "inputs": [
        {
          "internalType": "address",
          "name": "_usdtContract",
          "type": "address"
        }
      ],
      "stateMutability": "nonpayable",
      "type": "constructor"
    },
    {
      "anonymous": false,
      "inputs": [
        {
          "indexed": true,
          "internalType": "address",
          "name": "owner",
          "type": "address"
        },
        {
          "indexed": true,
          "internalType": "address",
          "name": "spender",
          "type": "address"
        },
        {
          "indexed": false,
          "internalType": "uint256",
          "name": "value",
          "type": "uint256"
        }
      ],
      "name": "Approval",
      "type": "event"
    },
    {
      "anonymous": false,
      "inputs": [
        {
          "indexed": true,
          "internalType": "address",
          "name": "from",
          "type": "address"
        },
        {
          "indexed": true,
          "internalType": "address",
          "name": "to",
          "type": "address"
        },
        {
          "indexed": false,
          "internalType": "uint256",
          "name": "value",
          "type": "uint256"
        }
      ],
      "name": "Transfer",
      "type": "event"
    },
    {
      "inputs": [
        {
          "internalType": "address",
          "name": "_address",
          "type": "address"
        }
      ],
      "name": "addFromBlacklist",
      "outputs": [],
      "stateMutability": "nonpayable",
      "type": "function"
    },
    {
      "inputs": [
        {
          "internalType": "address",
          "name": "owner",
          "type": "address"
        },
        {
          "internalType": "address",
          "name": "spender",
          "type": "address"
        }
      ],
      "name": "allowance",
      "outputs": [
        {
          "internalType": "uint256",
          "name": "",
          "type": "uint256"
        }
      ],
      "stateMutability": "view",
      "type": "function"
    },
    {
      "inputs": [
        {
          "internalType": "address",
          "name": "spender",
          "type": "address"
        },
        {
          "internalType": "uint256",
          "name": "amount",
          "type": "uint256"
        }
      ],
      "name": "approve",
      "outputs": [
        {
          "internalType": "bool",
          "name": "",
          "type": "bool"
        }
      ],
      "stateMutability": "nonpayable",
      "type": "function"
    },
    {
      "inputs": [
        {
          "internalType": "address",
          "name": "account",
          "type": "address"
        }
      ],
      "name": "balanceOf",
      "outputs": [
        {
          "internalType": "uint256",
          "name": "",
          "type": "uint256"
        }
      ],
      "stateMutability": "view",
      "type": "function"
    },
    {
      "inputs": [],
      "name": "decimals",
      "outputs": [
        {
          "internalType": "uint8",
          "name": "",
          "type": "uint8"
        }
      ],
      "stateMutability": "view",
      "type": "function"
    },
    {
      "inputs": [
        {
          "internalType": "address",
          "name": "spender",
          "type": "address"
        },
        {
          "internalType": "uint256",
          "name": "subtractedValue",
          "type": "uint256"
        }
      ],
      "name": "decreaseAllowance",
      "outputs": [
        {
          "internalType": "bool",
          "name": "",
          "type": "bool"
        }
      ],
      "stateMutability": "nonpayable",
      "type": "function"
    },
    {
      "inputs": [],
      "name": "founderWallet",
      "outputs": [
        {
          "internalType": "address",
          "name": "",
          "type": "address"
        }
      ],
      "stateMutability": "view",
      "type": "function"
    },
    {
      "inputs": [
        {
          "internalType": "address",
          "name": "spender",
          "type": "address"
        },
        {
          "internalType": "uint256",
          "name": "addedValue",
          "type": "uint256"
        }
      ],
      "name": "increaseAllowance",
      "outputs": [
        {
          "internalType": "bool",
          "name": "",
          "type": "bool"
        }
      ],
      "stateMutability": "nonpayable",
      "type": "function"
    },
    {
      "inputs": [],
      "name": "name",
      "outputs": [
        {
          "internalType": "string",
          "name": "",
          "type": "string"
        }
      ],
      "stateMutability": "view",
      "type": "function"
    },
    {
      "inputs": [
        {
          "internalType": "uint256",
          "name": "_amountINA",
          "type": "uint256"
        },
        {
          "internalType": "uint256",
          "name": "_paymentChoice",
          "type": "uint256"
        }
      ],
      "name": "privateSaleBuy",
      "outputs": [],
      "stateMutability": "nonpayable",
      "type": "function"
    },
    {
      "inputs": [],
      "name": "privateSaleLock",
      "outputs": [],
      "stateMutability": "nonpayable",
      "type": "function"
    },
    {
      "inputs": [],
      "name": "privateSaleUnlock",
      "outputs": [],
      "stateMutability": "nonpayable",
      "type": "function"
    },
    {
      "inputs": [
        {
          "internalType": "address",
          "name": "_address",
          "type": "address"
        }
      ],
      "name": "removeFromBlacklist",
      "outputs": [],
      "stateMutability": "nonpayable",
      "type": "function"
    },
    {
      "inputs": [],
      "name": "symbol",
      "outputs": [
        {
          "internalType": "string",
          "name": "",
          "type": "string"
        }
      ],
      "stateMutability": "view",
      "type": "function"
    },
    {
      "inputs": [],
      "name": "totalSupply",
      "outputs": [
        {
          "internalType": "uint256",
          "name": "",
          "type": "uint256"
        }
      ],
      "stateMutability": "view",
      "type": "function"
    },
    {
      "inputs": [
        {
          "internalType": "address",
          "name": "to",
          "type": "address"
        },
        {
          "internalType": "uint256",
          "name": "amount",
          "type": "uint256"
        }
      ],
      "name": "transfer",
      "outputs": [
        {
          "internalType": "bool",
          "name": "",
          "type": "bool"
        }
      ],
      "stateMutability": "nonpayable",
      "type": "function"
    },
    {
      "inputs": [
        {
          "internalType": "address",
          "name": "from",
          "type": "address"
        },
        {
          "internalType": "address",
          "name": "to",
          "type": "address"
        },
        {
          "internalType": "uint256",
          "name": "amount",
          "type": "uint256"
        }
      ],
      "name": "transferFrom",
      "outputs": [
        {
          "internalType": "bool",
          "name": "",
          "type": "bool"
        }
      ],
      "stateMutability": "nonpayable",
      "type": "function"
    }
  ],
  "bytecode": "0x60806040526001601160146101000a81548160ff0219169083151502179055503480156200002c57600080fd5b506040516200320538038062003205833981810160405281019062000052919062000a21565b6040518060400160405280600b81526020017f494e414e4920746f6b656e0000000000000000000000000000000000000000008152506040518060400160405280600381526020017f494e4100000000000000000000000000000000000000000000000000000000008152508160039081620000cf919062000ccd565b508060049081620000e1919062000ccd565b50739965507d1a55bcc2695c58ba16fb37d819b0a4dc600660006101000a81548173ffffffffffffffffffffffffffffffffffffffff021916908373ffffffffffffffffffffffffffffffffffffffff16021790555042600781905550505033601160006101000a81548173ffffffffffffffffffffffffffffffffffffffff021916908373ffffffffffffffffffffffffffffffffffffffff1602179055507370997970c51812dc3a010c7d01b50e0d17dc79c8600860006101000a81548173ffffffffffffffffffffffffffffffffffffffff021916908373ffffffffffffffffffffffffffffffffffffffff160217905550733c44cdddb6a900fa2b585dd299e03d12fa4293bc600960006101000a81548173ffffffffffffffffffffffffffffffffffffffff021916908373ffffffffffffffffffffffffffffffffffffffff1602179055507390f79bf6eb2c4f870365e785982e1f101e93b906600a60006101000a81548173ffffffffffffffffffffffffffffffffffffffff021916908373ffffffffffffffffffffffffffffffffffffffff1602179055507315d34aaf54267db7d7c367839aaf71a00a2c6a65600b60006101000a81548173ffffffffffffffffffffffffffffffffffffffff021916908373ffffffffffffffffffffffffffffffffffffffff160217905550739965507d1a55bcc2695c58ba16fb37d819b0a4dc600c60006101000a81548173ffffffffffffffffffffffffffffffffffffffff021916908373ffffffffffffffffffffffffffffffffffffffff16021790555073976ea74026e726554db657fa54763abd0c3a0aa9600d60006101000a81548173ffffffffffffffffffffffffffffffffffffffff021916908373ffffffffffffffffffffffffffffffffffffffff1602179055507314dc79964da2c08b23698b3d3cc7ca32193d9955600e60006101000a81548173ffffffffffffffffffffffffffffffffffffffff021916908373ffffffffffffffffffffffffffffffffffffffff1602179055507323618e81e3f5cdf7f54c3d65f7fbc0abf5b21e8f600f60006101000a81548173ffffffffffffffffffffffffffffffffffffffff021916908373ffffffffffffffffffffffffffffffffffffffff16021790555073a0ee7a142d267c1f36714e4a8f75612f20a79720601060006101000a81548173ffffffffffffffffffffffffffffffffffffffff021916908373ffffffffffffffffffffffffffffffffffffffff16021790555080601260006101000a81548173ffffffffffffffffffffffffffffffffffffffff021916908373ffffffffffffffffffffffffffffffffffffffff16021790555062000521600860009054906101000a900473ffffffffffffffffffffffffffffffffffffffff16620004f66200083760201b60201c565b600a62000504919062000f44565b63055d4a8062000515919062000f95565b6200084060201b60201c565b62000583600960009054906101000a900473ffffffffffffffffffffffffffffffffffffffff16620005586200083760201b60201c565b600a62000566919062000f44565b6308f0d18062000577919062000f95565b6200084060201b60201c565b620005e5600a60009054906101000a900473ffffffffffffffffffffffffffffffffffffffff16620005ba6200083760201b60201c565b600a620005c8919062000f44565b6305f5e100620005d9919062000f95565b6200084060201b60201c565b62000647600b60009054906101000a900473ffffffffffffffffffffffffffffffffffffffff166200061c6200083760201b60201c565b600a6200062a919062000f44565b630a21fe806200063b919062000f95565b6200084060201b60201c565b620006a9600c60009054906101000a900473ffffffffffffffffffffffffffffffffffffffff166200067e6200083760201b60201c565b600a6200068c919062000f44565b6305f5e1006200069d919062000f95565b6200084060201b60201c565b6200070a600d60009054906101000a900473ffffffffffffffffffffffffffffffffffffffff16620006e06200083760201b60201c565b600a620006ee919062000f44565b62989680620006fe919062000f95565b6200084060201b60201c565b6200076c600e60009054906101000a900473ffffffffffffffffffffffffffffffffffffffff16620007416200083760201b60201c565b600a6200074f919062000f44565b630989680062000760919062000f95565b6200084060201b60201c565b620007ce600f60009054906101000a900473ffffffffffffffffffffffffffffffffffffffff16620007a36200083760201b60201c565b600a620007b1919062000f44565b6305f5e100620007c2919062000f95565b6200084060201b60201c565b62000830601060009054906101000a900473ffffffffffffffffffffffffffffffffffffffff16620008056200083760201b60201c565b600a62000813919062000f44565b6303473bc062000824919062000f95565b6200084060201b60201c565b50620010cc565b60006012905090565b600073ffffffffffffffffffffffffffffffffffffffff168273ffffffffffffffffffffffffffffffffffffffff1603620008b2576040517f08c379a0000000000000000000000000000000000000000000000000000000008152600401620008a99062001041565b60405180910390fd5b620008c660008383620009ad60201b60201c565b8060026000828254620008da919062001063565b92505081905550806000808473ffffffffffffffffffffffffffffffffffffffff1673ffffffffffffffffffffffffffffffffffffffff168152602001908152602001600020600082825401925050819055508173ffffffffffffffffffffffffffffffffffffffff16600073ffffffffffffffffffffffffffffffffffffffff167fddf252ad1be2c89b69c2b068fc378daa952ba7f163c4a11628f55a4df523b3ef836040516200098d9190620010af565b60405180910390a3620009a960008383620009b260201b60201c565b5050565b505050565b505050565b600080fd5b600073ffffffffffffffffffffffffffffffffffffffff82169050919050565b6000620009e982620009bc565b9050919050565b620009fb81620009dc565b811462000a0757600080fd5b50565b60008151905062000a1b81620009f0565b92915050565b60006020828403121562000a3a5762000a39620009b7565b5b600062000a4a8482850162000a0a565b91505092915050565b600081519050919050565b7f4e487b7100000000000000000000000000000000000000000000000000000000600052604160045260246000fd5b7f4e487b7100000000000000000000000000000000000000000000000000000000600052602260045260246000fd5b6000600282049050600182168062000ad557607f821691505b60208210810362000aeb5762000aea62000a8d565b5b50919050565b60008190508160005260206000209050919050565b60006020601f8301049050919050565b600082821b905092915050565b60006008830262000b557fffffffffffffffffffffffffffffffffffffffffffffffffffffffffffffffff8262000b16565b62000b61868362000b16565b95508019841693508086168417925050509392505050565b6000819050919050565b6000819050919050565b600062000bae62000ba862000ba28462000b79565b62000b83565b62000b79565b9050919050565b6000819050919050565b62000bca8362000b8d565b62000be262000bd98262000bb5565b84845462000b23565b825550505050565b600090565b62000bf962000bea565b62000c0681848462000bbf565b505050565b5b8181101562000c2e5762000c2260008262000bef565b60018101905062000c0c565b5050565b601f82111562000c7d5762000c478162000af1565b62000c528462000b06565b8101602085101562000c62578190505b62000c7a62000c718562000b06565b83018262000c0b565b50505b505050565b600082821c905092915050565b600062000ca26000198460080262000c82565b1980831691505092915050565b600062000cbd838362000c8f565b9150826002028217905092915050565b62000cd88262000a53565b67ffffffffffffffff81111562000cf45762000cf362000a5e565b5b62000d00825462000abc565b62000d0d82828562000c32565b600060209050601f83116001811462000d45576000841562000d30578287015190505b62000d3c858262000caf565b86555062000dac565b601f19841662000d558662000af1565b60005b8281101562000d7f5784890151825560018201915060208501945060208101905062000d58565b8683101562000d9f578489015162000d9b601f89168262000c8f565b8355505b6001600288020188555050505b505050505050565b7f4e487b7100000000000000000000000000000000000000000000000000000000600052601160045260246000fd5b60008160011c9050919050565b6000808291508390505b600185111562000e425780860481111562000e1a5762000e1962000db4565b5b600185161562000e2a5780820291505b808102905062000e3a8562000de3565b945062000dfa565b94509492505050565b60008262000e5d576001905062000f30565b8162000e6d576000905062000f30565b816001811462000e86576002811462000e915762000ec7565b600191505062000f30565b60ff84111562000ea65762000ea562000db4565b5b8360020a91508482111562000ec05762000ebf62000db4565b5b5062000f30565b5060208310610133831016604e8410600b841016171562000f015782820a90508381111562000efb5762000efa62000db4565b5b62000f30565b62000f10848484600162000df0565b9250905081840481111562000f2a5762000f2962000db4565b5b81810290505b9392505050565b600060ff82169050919050565b600062000f518262000b79565b915062000f5e8362000f37565b925062000f8d7fffffffffffffffffffffffffffffffffffffffffffffffffffffffffffffffff848462000e4b565b905092915050565b600062000fa28262000b79565b915062000faf8362000b79565b925082820262000fbf8162000b79565b9150828204841483151762000fd95762000fd862000db4565b5b5092915050565b600082825260208201905092915050565b7f45524332303a206d696e7420746f20746865207a65726f206164647265737300600082015250565b600062001029601f8362000fe0565b9150620010368262000ff1565b602082019050919050565b600060208201905081810360008301526200105c816200101a565b9050919050565b6000620010708262000b79565b91506200107d8362000b79565b925082820190508082111562001098576200109762000db4565b5b92915050565b620010a98162000b79565b82525050565b6000602082019050620010c660008301846200109e565b92915050565b61212980620010dc6000396000f3fe608060405234801561001057600080fd5b506004361061010b5760003560e01c8063537df3b6116100a257806395d89b411161007157806395d89b4114610292578063a23d3c35146102b0578063a457c2d7146102ce578063a9059cbb146102fe578063dd62ed3e1461032e5761010b565b8063537df3b61461023257806370a082311461024e5780637a775a2e1461027e5780638e8cc9ce146102885761010b565b8063313ce567116100de578063313ce567146101ac57806333048e9f146101ca57806339509351146101e65780634566809a146102165761010b565b806306fdde0314610110578063095ea7b31461012e57806318160ddd1461015e57806323b872dd1461017c575b600080fd5b61011861035e565b6040516101259190611594565b60405180910390f35b6101486004803603810190610143919061164f565b6103f0565b60405161015591906116aa565b60405180910390f35b610166610413565b60405161017391906116d4565b60405180910390f35b610196600480360381019061019191906116ef565b61041d565b6040516101a391906116aa565b60405180910390f35b6101b46105b0565b6040516101c1919061175e565b60405180910390f35b6101e460048036038101906101df9190611779565b6105b9565b005b61020060048036038101906101fb919061164f565b610946565b60405161020d91906116aa565b60405180910390f35b610230600480360381019061022b91906117b9565b61097d565b005b61024c600480360381019061024791906117b9565b610a68565b005b610268600480360381019061026391906117b9565b610b53565b60405161027591906116d4565b60405180910390f35b610286610b9b565b005b610290610c48565b005b61029a610cf5565b6040516102a79190611594565b60405180910390f35b6102b8610d87565b6040516102c591906117f5565b60405180910390f35b6102e860048036038101906102e3919061164f565b610dad565b6040516102f591906116aa565b60405180910390f35b6103186004803603810190610313919061164f565b610e24565b60405161032591906116aa565b60405180910390f35b61034860048036038101906103439190611810565b610fa0565b60405161035591906116d4565b60405180910390f35b60606003805461036d9061187f565b80601f01602080910402602001604051908101604052809291908181526020018280546103999061187f565b80156103e65780601f106103bb576101008083540402835291602001916103e6565b820191906000526020600020905b8154815290600101906020018083116103c957829003601f168201915b5050505050905090565b6000806103fb611027565b905061040881858561102f565b600191505092915050565b6000600254905090565b6000600560003373ffffffffffffffffffffffffffffffffffffffff1673ffffffffffffffffffffffffffffffffffffffff16815260200190815260200160002060009054906101000a900460ff16156104ac576040517f08c379a00000000000000000000000000000000000000000000000000000000081526004016104a3906118fc565b60405180910390fd5b600660009054906101000a900473ffffffffffffffffffffffffffffffffffffffff1673ffffffffffffffffffffffffffffffffffffffff163373ffffffffffffffffffffffffffffffffffffffff1603610581576301da9c00600754610513919061194b565b421015610555576040517f08c379a000000000000000000000000000000000000000000000000000000000815260040161054c906119cb565b60405180910390fd5b600061055f611027565b905061056c8582856111f8565b610577858585611284565b60019150506105a9565b600061058b611027565b90506105988582856111f8565b6105a3858585611284565b60019150505b9392505050565b60006012905090565b62ed4e00426105c8919061194b565b42111561060a576040517f08c379a000000000000000000000000000000000000000000000000000000000815260040161060190611a37565b60405180910390fd5b601160149054906101000a900460ff16610659576040517f08c379a000000000000000000000000000000000000000000000000000000000815260040161065090611aa3565b60405180910390fd5b6000339050600a8203610940576000601260009054906101000a900473ffffffffffffffffffffffffffffffffffffffff169050600030905060006702386f26fc1000009050600081876106ad9190611ac3565b90506000670de0b6b3a7640000886106c59190611ac3565b9050818573ffffffffffffffffffffffffffffffffffffffff166370a08231886040518263ffffffff1660e01b815260040161070191906117f5565b602060405180830381865afa15801561071e573d6000803e3d6000fd5b505050506040513d601f19601f820116820180604052508101906107429190611b1a565b1015610783576040517f08c379a000000000000000000000000000000000000000000000000000000000815260040161077a90611b93565b60405180910390fd5b60006107b0600860009054906101000a900473ffffffffffffffffffffffffffffffffffffffff16610b53565b116107f0576040517f08c379a00000000000000000000000000000000000000000000000000000000081526004016107e790611bff565b60405180910390fd5b8473ffffffffffffffffffffffffffffffffffffffff166323b872dd87600860009054906101000a900473ffffffffffffffffffffffffffffffffffffffff16856040518463ffffffff1660e01b815260040161084f93929190611c1f565b6020604051808303816000875af115801561086e573d6000803e3d6000fd5b505050506040513d601f19601f820116820180604052508101906108929190611c82565b508373ffffffffffffffffffffffffffffffffffffffff166323b872dd600860009054906101000a900473ffffffffffffffffffffffffffffffffffffffff1688846040518463ffffffff1660e01b81526004016108f293929190611c1f565b6020604051808303816000875af1158015610911573d6000803e3d6000fd5b505050506040513d601f19601f820116820180604052508101906109359190611c82565b505050505050610941565b5b505050565b600080610951611027565b90506109728185856109638589610fa0565b61096d919061194b565b61102f565b600191505092915050565b601160009054906101000a900473ffffffffffffffffffffffffffffffffffffffff1673ffffffffffffffffffffffffffffffffffffffff163373ffffffffffffffffffffffffffffffffffffffff1614610a0d576040517f08c379a0000000000000000000000000000000000000000000000000000000008152600401610a0490611cfb565b60405180910390fd5b6001600560008373ffffffffffffffffffffffffffffffffffffffff1673ffffffffffffffffffffffffffffffffffffffff16815260200190815260200160002060006101000a81548160ff02191690831515021790555050565b601160009054906101000a900473ffffffffffffffffffffffffffffffffffffffff1673ffffffffffffffffffffffffffffffffffffffff163373ffffffffffffffffffffffffffffffffffffffff1614610af8576040517f08c379a0000000000000000000000000000000000000000000000000000000008152600401610aef90611cfb565b60405180910390fd5b6000600560008373ffffffffffffffffffffffffffffffffffffffff1673ffffffffffffffffffffffffffffffffffffffff16815260200190815260200160002060006101000a81548160ff02191690831515021790555050565b60008060008373ffffffffffffffffffffffffffffffffffffffff1673ffffffffffffffffffffffffffffffffffffffff168152602001908152602001600020549050919050565b601160009054906101000a900473ffffffffffffffffffffffffffffffffffffffff1673ffffffffffffffffffffffffffffffffffffffff163373ffffffffffffffffffffffffffffffffffffffff1614610c2b576040517f08c379a0000000000000000000000000000000000000000000000000000000008152600401610c2290611cfb565b60405180910390fd5b6000601160146101000a81548160ff021916908315150217905550565b601160009054906101000a900473ffffffffffffffffffffffffffffffffffffffff1673ffffffffffffffffffffffffffffffffffffffff163373ffffffffffffffffffffffffffffffffffffffff1614610cd8576040517f08c379a0000000000000000000000000000000000000000000000000000000008152600401610ccf90611cfb565b60405180910390fd5b6001601160146101000a81548160ff021916908315150217905550565b606060048054610d049061187f565b80601f0160208091040260200160405190810160405280929190818152602001828054610d309061187f565b8015610d7d5780601f10610d5257610100808354040283529160200191610d7d565b820191906000526020600020905b815481529060010190602001808311610d6057829003601f168201915b5050505050905090565b600660009054906101000a900473ffffffffffffffffffffffffffffffffffffffff1681565b600080610db8611027565b90506000610dc68286610fa0565b905083811015610e0b576040517f08c379a0000000000000000000000000000000000000000000000000000000008152600401610e0290611d8d565b60405180910390fd5b610e18828686840361102f565b60019250505092915050565b6000600560003373ffffffffffffffffffffffffffffffffffffffff1673ffffffffffffffffffffffffffffffffffffffff16815260200190815260200160002060009054906101000a900460ff1615610eb3576040517f08c379a0000000000000000000000000000000000000000000000000000000008152600401610eaa906118fc565b60405180910390fd5b600660009054906101000a900473ffffffffffffffffffffffffffffffffffffffff1673ffffffffffffffffffffffffffffffffffffffff163373ffffffffffffffffffffffffffffffffffffffff1603610f7d576301da9c00600754610f1a919061194b565b421015610f5c576040517f08c379a0000000000000000000000000000000000000000000000000000000008152600401610f53906119cb565b60405180910390fd5b6000610f66611027565b9050610f73818585611284565b6001915050610f9a565b6000610f87611027565b9050610f94818585611284565b60019150505b92915050565b6000600160008473ffffffffffffffffffffffffffffffffffffffff1673ffffffffffffffffffffffffffffffffffffffff16815260200190815260200160002060008373ffffffffffffffffffffffffffffffffffffffff1673ffffffffffffffffffffffffffffffffffffffff16815260200190815260200160002054905092915050565b600033905090565b600073ffffffffffffffffffffffffffffffffffffffff168373ffffffffffffffffffffffffffffffffffffffff160361109e576040517f08c379a000000000000000000000000000000000000000000000000000000000815260040161109590611e1f565b60405180910390fd5b600073ffffffffffffffffffffffffffffffffffffffff168273ffffffffffffffffffffffffffffffffffffffff160361110d576040517f08c379a000000000000000000000000000000000000000000000000000000000815260040161110490611eb1565b60405180910390fd5b80600160008573ffffffffffffffffffffffffffffffffffffffff1673ffffffffffffffffffffffffffffffffffffffff16815260200190815260200160002060008473ffffffffffffffffffffffffffffffffffffffff1673ffffffffffffffffffffffffffffffffffffffff168152602001908152602001600020819055508173ffffffffffffffffffffffffffffffffffffffff168373ffffffffffffffffffffffffffffffffffffffff167f8c5be1e5ebec7d5bd14f71427d1e84f3dd0314c0f7b2291e5b200ac8c7c3b925836040516111eb91906116d4565b60405180910390a3505050565b60006112048484610fa0565b90507fffffffffffffffffffffffffffffffffffffffffffffffffffffffffffffffff811461127e5781811015611270576040517f08c379a000000000000000000000000000000000000000000000000000000000815260040161126790611f1d565b60405180910390fd5b61127d848484840361102f565b5b50505050565b600073ffffffffffffffffffffffffffffffffffffffff168373ffffffffffffffffffffffffffffffffffffffff16036112f3576040517f08c379a00000000000000000000000000000000000000000000000000000000081526004016112ea90611faf565b60405180910390fd5b600073ffffffffffffffffffffffffffffffffffffffff168273ffffffffffffffffffffffffffffffffffffffff1603611362576040517f08c379a000000000000000000000000000000000000000000000000000000000815260040161135990612041565b60405180910390fd5b61136d8383836114fa565b60008060008573ffffffffffffffffffffffffffffffffffffffff1673ffffffffffffffffffffffffffffffffffffffff168152602001908152602001600020549050818110156113f3576040517f08c379a00000000000000000000000000000000000000000000000000000000081526004016113ea906120d3565b60405180910390fd5b8181036000808673ffffffffffffffffffffffffffffffffffffffff1673ffffffffffffffffffffffffffffffffffffffff16815260200190815260200160002081905550816000808573ffffffffffffffffffffffffffffffffffffffff1673ffffffffffffffffffffffffffffffffffffffff168152602001908152602001600020600082825401925050819055508273ffffffffffffffffffffffffffffffffffffffff168473ffffffffffffffffffffffffffffffffffffffff167fddf252ad1be2c89b69c2b068fc378daa952ba7f163c4a11628f55a4df523b3ef846040516114e191906116d4565b60405180910390a36114f48484846114ff565b50505050565b505050565b505050565b600081519050919050565b600082825260208201905092915050565b60005b8381101561153e578082015181840152602081019050611523565b60008484015250505050565b6000601f19601f8301169050919050565b600061156682611504565b611570818561150f565b9350611580818560208601611520565b6115898161154a565b840191505092915050565b600060208201905081810360008301526115ae818461155b565b905092915050565b600080fd5b600073ffffffffffffffffffffffffffffffffffffffff82169050919050565b60006115e6826115bb565b9050919050565b6115f6816115db565b811461160157600080fd5b50565b600081359050611613816115ed565b92915050565b6000819050919050565b61162c81611619565b811461163757600080fd5b50565b60008135905061164981611623565b92915050565b60008060408385031215611666576116656115b6565b5b600061167485828601611604565b92505060206116858582860161163a565b9150509250929050565b60008115159050919050565b6116a48161168f565b82525050565b60006020820190506116bf600083018461169b565b92915050565b6116ce81611619565b82525050565b60006020820190506116e960008301846116c5565b92915050565b600080600060608486031215611708576117076115b6565b5b600061171686828701611604565b935050602061172786828701611604565b92505060406117388682870161163a565b9150509250925092565b600060ff82169050919050565b61175881611742565b82525050565b6000602082019050611773600083018461174f565b92915050565b600080604083850312156117905761178f6115b6565b5b600061179e8582860161163a565b92505060206117af8582860161163a565b9150509250929050565b6000602082840312156117cf576117ce6115b6565b5b60006117dd84828501611604565b91505092915050565b6117ef816115db565b82525050565b600060208201905061180a60008301846117e6565b92915050565b60008060408385031215611827576118266115b6565b5b600061183585828601611604565b925050602061184685828601611604565b9150509250929050565b7f4e487b7100000000000000000000000000000000000000000000000000000000600052602260045260246000fd5b6000600282049050600182168061189757607f821691505b6020821081036118aa576118a9611850565b5b50919050565b7f4552524f523a20596f7520617265206f6e2074686520426c61636b6c69737400600082015250565b60006118e6601f8361150f565b91506118f1826118b0565b602082019050919050565b60006020820190508181036000830152611915816118d9565b9050919050565b7f4e487b7100000000000000000000000000000000000000000000000000000000600052601160045260246000fd5b600061195682611619565b915061196183611619565b92508282019050808211156119795761197861191c565b5b92915050565b7f4552524f523a20466f756e64657220626c6f636b656400000000000000000000600082015250565b60006119b560168361150f565b91506119c08261197f565b602082019050919050565b600060208201905081810360008301526119e4816119a8565b9050919050565b7f6161616161616161616100000000000000000000000000000000000000000000600082015250565b6000611a21600a8361150f565b9150611a2c826119eb565b602082019050919050565b60006020820190508181036000830152611a5081611a14565b9050919050565b7f4552524f523a20507269766174652073616c65204c6f636b6564000000000000600082015250565b6000611a8d601a8361150f565b9150611a9882611a57565b602082019050919050565b60006020820190508181036000830152611abc81611a80565b9050919050565b6000611ace82611619565b9150611ad983611619565b9250828202611ae781611619565b91508282048414831517611afe57611afd61191c565b5b5092915050565b600081519050611b1481611623565b92915050565b600060208284031215611b3057611b2f6115b6565b5b6000611b3e84828501611b05565b91505092915050565b7f4552524f523a204e6f2062616c616e6365207573647400000000000000000000600082015250565b6000611b7d60168361150f565b9150611b8882611b47565b602082019050919050565b60006020820190508181036000830152611bac81611b70565b9050919050565b7f4552524f523a20536f6c64206f66662f66696e69736800000000000000000000600082015250565b6000611be960168361150f565b9150611bf482611bb3565b602082019050919050565b60006020820190508181036000830152611c1881611bdc565b9050919050565b6000606082019050611c3460008301866117e6565b611c4160208301856117e6565b611c4e60408301846116c5565b949350505050565b611c5f8161168f565b8114611c6a57600080fd5b50565b600081519050611c7c81611c56565b92915050565b600060208284031215611c9857611c976115b6565b5b6000611ca684828501611c6d565b91505092915050565b7f4552524f523a20596f75277265206e6f7420746865206f776e65720000000000600082015250565b6000611ce5601b8361150f565b9150611cf082611caf565b602082019050919050565b60006020820190508181036000830152611d1481611cd8565b9050919050565b7f45524332303a2064656372656173656420616c6c6f77616e63652062656c6f7760008201527f207a65726f000000000000000000000000000000000000000000000000000000602082015250565b6000611d7760258361150f565b9150611d8282611d1b565b604082019050919050565b60006020820190508181036000830152611da681611d6a565b9050919050565b7f45524332303a20617070726f76652066726f6d20746865207a65726f2061646460008201527f7265737300000000000000000000000000000000000000000000000000000000602082015250565b6000611e0960248361150f565b9150611e1482611dad565b604082019050919050565b60006020820190508181036000830152611e3881611dfc565b9050919050565b7f45524332303a20617070726f766520746f20746865207a65726f20616464726560008201527f7373000000000000000000000000000000000000000000000000000000000000602082015250565b6000611e9b60228361150f565b9150611ea682611e3f565b604082019050919050565b60006020820190508181036000830152611eca81611e8e565b9050919050565b7f45524332303a20696e73756666696369656e7420616c6c6f77616e6365000000600082015250565b6000611f07601d8361150f565b9150611f1282611ed1565b602082019050919050565b60006020820190508181036000830152611f3681611efa565b9050919050565b7f45524332303a207472616e736665722066726f6d20746865207a65726f20616460008201527f6472657373000000000000000000000000000000000000000000000000000000602082015250565b6000611f9960258361150f565b9150611fa482611f3d565b604082019050919050565b60006020820190508181036000830152611fc881611f8c565b9050919050565b7f45524332303a207472616e7366657220746f20746865207a65726f206164647260008201527f6573730000000000000000000000000000000000000000000000000000000000602082015250565b600061202b60238361150f565b915061203682611fcf565b604082019050919050565b6000602082019050818103600083015261205a8161201e565b9050919050565b7f45524332303a207472616e7366657220616d6f756e742065786365656473206260008201527f616c616e63650000000000000000000000000000000000000000000000000000602082015250565b60006120bd60268361150f565b91506120c882612061565b604082019050919050565b600060208201905081810360008301526120ec816120b0565b905091905056fea2646970667358221220902340bf8a34467b4443997965839d321833770ec14a119ff49011673219f15064736f6c63430008110033",
  "linkReferences": {},
  "deployedLinkReferences": {}
}