{
  "_format": "hh-sol-artifact-1",
  "contractName": "publication",
  "sourceName": "contracts/INAHardhat.sol",
  "abi": [
    {
      "inputs": [
        {
          "internalType": "string",
          "name": "description_",
          "type": "string"
        },
        {
          "internalType": "string",
          "name": "video_",
          "type": "string"
        },
        {
          "internalType": "address",
          "name": "owner_",
          "type": "address"
        }
      ],
      "stateMutability": "nonpayable",
      "type": "constructor"
    },
    {
      "inputs": [],
      "name": "_owner",
      "outputs": [
        {
          "internalType": "address",
          "name": "",
          "type": "address"
        }
      ],
      "stateMutability": "view",
      "type": "function"
    },
    {
      "inputs": [
        {
          "internalType": "uint256",
          "name": "",
          "type": "uint256"
        }
      ],
      "name": "allComments",
      "outputs": [
        {
          "internalType": "string",
          "name": "",
          "type": "string"
        }
      ],
      "stateMutability": "view",
      "type": "function"
    },
    {
      "inputs": [
        {
          "internalType": "string",
          "name": "_message",
          "type": "string"
        }
      ],
      "name": "commentThis",
      "outputs": [],
      "stateMutability": "nonpayable",
      "type": "function"
    },
    {
      "inputs": [],
      "name": "likeThis",
      "outputs": [],
      "stateMutability": "nonpayable",
      "type": "function"
    },
    {
      "inputs": [],
      "name": "returnAllComments",
      "outputs": [
        {
          "internalType": "string[]",
          "name": "",
          "type": "string[]"
        }
      ],
      "stateMutability": "view",
      "type": "function"
    },
    {
      "inputs": [],
      "name": "returnPublication",
      "outputs": [
        {
          "internalType": "string",
          "name": "",
          "type": "string"
        },
        {
          "internalType": "string",
          "name": "",
          "type": "string"
        }
      ],
      "stateMutability": "nonpayable",
      "type": "function"
    },
    {
      "inputs": [],
      "name": "returnTotaLike",
      "outputs": [
        {
          "internalType": "uint256",
          "name": "",
          "type": "uint256"
        }
      ],
      "stateMutability": "view",
      "type": "function"
    },
    {
      "inputs": [],
      "name": "returnTotalComments",
      "outputs": [
        {
          "internalType": "uint256",
          "name": "",
          "type": "uint256"
        }
      ],
      "stateMutability": "view",
      "type": "function"
    },
    {
      "inputs": [],
      "name": "unlikeThis",
      "outputs": [],
      "stateMutability": "nonpayable",
      "type": "function"
    }
  ],
  "bytecode": "0x60806040523480156200001157600080fd5b5060405162001649380380620016498339818101604052810190620000379190620002ac565b826001908162000048919062000591565b5081600290816200005a919062000591565b50806000806101000a81548173ffffffffffffffffffffffffffffffffffffffff021916908373ffffffffffffffffffffffffffffffffffffffff1602179055506000600381905550600060048190555050505062000678565b6000604051905090565b600080fd5b600080fd5b600080fd5b600080fd5b6000601f19601f8301169050919050565b7f4e487b7100000000000000000000000000000000000000000000000000000000600052604160045260246000fd5b6200011d82620000d2565b810181811067ffffffffffffffff821117156200013f576200013e620000e3565b5b80604052505050565b600062000154620000b4565b905062000162828262000112565b919050565b600067ffffffffffffffff821115620001855762000184620000e3565b5b6200019082620000d2565b9050602081019050919050565b60005b83811015620001bd578082015181840152602081019050620001a0565b60008484015250505050565b6000620001e0620001da8462000167565b62000148565b905082815260208101848484011115620001ff57620001fe620000cd565b5b6200020c8482856200019d565b509392505050565b600082601f8301126200022c576200022b620000c8565b5b81516200023e848260208601620001c9565b91505092915050565b600073ffffffffffffffffffffffffffffffffffffffff82169050919050565b6000620002748262000247565b9050919050565b620002868162000267565b81146200029257600080fd5b50565b600081519050620002a6816200027b565b92915050565b600080600060608486031215620002c857620002c7620000be565b5b600084015167ffffffffffffffff811115620002e957620002e8620000c3565b5b620002f78682870162000214565b935050602084015167ffffffffffffffff8111156200031b576200031a620000c3565b5b620003298682870162000214565b92505060406200033c8682870162000295565b9150509250925092565b600081519050919050565b7f4e487b7100000000000000000000000000000000000000000000000000000000600052602260045260246000fd5b600060028204905060018216806200039957607f821691505b602082108103620003af57620003ae62000351565b5b50919050565b60008190508160005260206000209050919050565b60006020601f8301049050919050565b600082821b905092915050565b600060088302620004197fffffffffffffffffffffffffffffffffffffffffffffffffffffffffffffffff82620003da565b620004258683620003da565b95508019841693508086168417925050509392505050565b6000819050919050565b6000819050919050565b6000620004726200046c62000466846200043d565b62000447565b6200043d565b9050919050565b6000819050919050565b6200048e8362000451565b620004a66200049d8262000479565b848454620003e7565b825550505050565b600090565b620004bd620004ae565b620004ca81848462000483565b505050565b5b81811015620004f257620004e6600082620004b3565b600181019050620004d0565b5050565b601f82111562000541576200050b81620003b5565b6200051684620003ca565b8101602085101562000526578190505b6200053e6200053585620003ca565b830182620004cf565b50505b505050565b600082821c905092915050565b6000620005666000198460080262000546565b1980831691505092915050565b600062000581838362000553565b9150826002028217905092915050565b6200059c8262000346565b67ffffffffffffffff811115620005b857620005b7620000e3565b5b620005c4825462000380565b620005d1828285620004f6565b600060209050601f831160018114620006095760008415620005f4578287015190505b62000600858262000573565b86555062000670565b601f1984166200061986620003b5565b60005b8281101562000643578489015182556001820191506020850194506020810190506200061c565b868310156200066357848901516200065f601f89168262000553565b8355505b6001600288020188555050505b505050505050565b610fc180620006886000396000f3fe608060405234801561001057600080fd5b50600436106100935760003560e01c806363dc0bb31161006657806363dc0bb3146100fd5780637bb7f6bd1461012d578063a40d0eb11461014b578063b2bdfa7b14610167578063cc49d3391461018557610093565b806313ddab81146100985780631420d75d146100b6578063360da1ed146100d55780634db083c6146100df575b600080fd5b6100a061018f565b6040516100ad91906106c5565b60405180910390f35b6100be610199565b6040516100cc929190610770565b60405180910390f35b6100dd6102c0565b005b6100e76103c1565b6040516100f491906106c5565b60405180910390f35b610117600480360381019061011291906107e7565b6103cb565b6040516101249190610814565b60405180910390f35b610135610477565b6040516101429190610942565b60405180910390f35b61016560048036038101906101609190610a99565b610550565b005b61016f610588565b60405161017c9190610b23565b60405180910390f35b61018d6105ac565b005b6000600354905090565b606080600160028180546101ac90610b6d565b80601f01602080910402602001604051908101604052809291908181526020018280546101d890610b6d565b80156102255780601f106101fa57610100808354040283529160200191610225565b820191906000526020600020905b81548152906001019060200180831161020857829003601f168201915b5050505050915080805461023890610b6d565b80601f016020809104026020016040519081016040528092919081815260200182805461026490610b6d565b80156102b15780601f10610286576101008083540402835291602001916102b1565b820191906000526020600020905b81548152906001019060200180831161029457829003601f168201915b50505050509050915091509091565b600560003373ffffffffffffffffffffffffffffffffffffffff1673ffffffffffffffffffffffffffffffffffffffff16815260200190815260200160002060009054906101000a900460ff161561034d576040517f08c379a000000000000000000000000000000000000000000000000000000000815260040161034490610bea565b60405180910390fd5b6001600560003373ffffffffffffffffffffffffffffffffffffffff1673ffffffffffffffffffffffffffffffffffffffff16815260200190815260200160002060006101000a81548160ff0219169083151502179055506001600360008282546103b89190610c39565b92505081905550565b6000600454905090565b600681815481106103db57600080fd5b9060005260206000200160009150905080546103f690610b6d565b80601f016020809104026020016040519081016040528092919081815260200182805461042290610b6d565b801561046f5780601f106104445761010080835404028352916020019161046f565b820191906000526020600020905b81548152906001019060200180831161045257829003601f168201915b505050505081565b60606006805480602002602001604051908101604052809291908181526020016000905b828210156105475783829060005260206000200180546104ba90610b6d565b80601f01602080910402602001604051908101604052809291908181526020018280546104e690610b6d565b80156105335780601f1061050857610100808354040283529160200191610533565b820191906000526020600020905b81548152906001019060200180831161051657829003601f168201915b50505050508152602001906001019061049b565b50505050905090565b6006819080600181540180825580915050600190039060005260206000200160009091909190915090816105849190610e19565b5050565b60008054906101000a900473ffffffffffffffffffffffffffffffffffffffff1681565b600560003373ffffffffffffffffffffffffffffffffffffffff1673ffffffffffffffffffffffffffffffffffffffff16815260200190815260200160002060009054906101000a900460ff16610638576040517f08c379a000000000000000000000000000000000000000000000000000000000815260040161062f90610f37565b60405180910390fd5b6000600560003373ffffffffffffffffffffffffffffffffffffffff1673ffffffffffffffffffffffffffffffffffffffff16815260200190815260200160002060006101000a81548160ff0219169083151502179055506001600360008282546106a39190610f57565b92505081905550565b6000819050919050565b6106bf816106ac565b82525050565b60006020820190506106da60008301846106b6565b92915050565b600081519050919050565b600082825260208201905092915050565b60005b8381101561071a5780820151818401526020810190506106ff565b60008484015250505050565b6000601f19601f8301169050919050565b6000610742826106e0565b61074c81856106eb565b935061075c8185602086016106fc565b61076581610726565b840191505092915050565b6000604082019050818103600083015261078a8185610737565b9050818103602083015261079e8184610737565b90509392505050565b6000604051905090565b600080fd5b600080fd5b6107c4816106ac565b81146107cf57600080fd5b50565b6000813590506107e1816107bb565b92915050565b6000602082840312156107fd576107fc6107b1565b5b600061080b848285016107d2565b91505092915050565b6000602082019050818103600083015261082e8184610737565b905092915050565b600081519050919050565b600082825260208201905092915050565b6000819050602082019050919050565b600082825260208201905092915050565b600061087e826106e0565b6108888185610862565b93506108988185602086016106fc565b6108a181610726565b840191505092915050565b60006108b88383610873565b905092915050565b6000602082019050919050565b60006108d882610836565b6108e28185610841565b9350836020820285016108f485610852565b8060005b85811015610930578484038952815161091185826108ac565b945061091c836108c0565b925060208a019950506001810190506108f8565b50829750879550505050505092915050565b6000602082019050818103600083015261095c81846108cd565b905092915050565b600080fd5b600080fd5b7f4e487b7100000000000000000000000000000000000000000000000000000000600052604160045260246000fd5b6109a682610726565b810181811067ffffffffffffffff821117156109c5576109c461096e565b5b80604052505050565b60006109d86107a7565b90506109e4828261099d565b919050565b600067ffffffffffffffff821115610a0457610a0361096e565b5b610a0d82610726565b9050602081019050919050565b82818337600083830152505050565b6000610a3c610a37846109e9565b6109ce565b905082815260208101848484011115610a5857610a57610969565b5b610a63848285610a1a565b509392505050565b600082601f830112610a8057610a7f610964565b5b8135610a90848260208601610a29565b91505092915050565b600060208284031215610aaf57610aae6107b1565b5b600082013567ffffffffffffffff811115610acd57610acc6107b6565b5b610ad984828501610a6b565b91505092915050565b600073ffffffffffffffffffffffffffffffffffffffff82169050919050565b6000610b0d82610ae2565b9050919050565b610b1d81610b02565b82525050565b6000602082019050610b386000830184610b14565b92915050565b7f4e487b7100000000000000000000000000000000000000000000000000000000600052602260045260246000fd5b60006002820490506001821680610b8557607f821691505b602082108103610b9857610b97610b3e565b5b50919050565b7f4c696b6564000000000000000000000000000000000000000000000000000000600082015250565b6000610bd46005836106eb565b9150610bdf82610b9e565b602082019050919050565b60006020820190508181036000830152610c0381610bc7565b9050919050565b7f4e487b7100000000000000000000000000000000000000000000000000000000600052601160045260246000fd5b6000610c44826106ac565b9150610c4f836106ac565b9250828201905080821115610c6757610c66610c0a565b5b92915050565b60008190508160005260206000209050919050565b60006020601f8301049050919050565b600082821b905092915050565b600060088302610ccf7fffffffffffffffffffffffffffffffffffffffffffffffffffffffffffffffff82610c92565b610cd98683610c92565b95508019841693508086168417925050509392505050565b6000819050919050565b6000610d16610d11610d0c846106ac565b610cf1565b6106ac565b9050919050565b6000819050919050565b610d3083610cfb565b610d44610d3c82610d1d565b848454610c9f565b825550505050565b600090565b610d59610d4c565b610d64818484610d27565b505050565b5b81811015610d8857610d7d600082610d51565b600181019050610d6a565b5050565b601f821115610dcd57610d9e81610c6d565b610da784610c82565b81016020851015610db6578190505b610dca610dc285610c82565b830182610d69565b50505b505050565b600082821c905092915050565b6000610df060001984600802610dd2565b1980831691505092915050565b6000610e098383610ddf565b9150826002028217905092915050565b610e22826106e0565b67ffffffffffffffff811115610e3b57610e3a61096e565b5b610e458254610b6d565b610e50828285610d8c565b600060209050601f831160018114610e835760008415610e71578287015190505b610e7b8582610dfd565b865550610ee3565b601f198416610e9186610c6d565b60005b82811015610eb957848901518255600182019150602085019450602081019050610e94565b86831015610ed65784890151610ed2601f891682610ddf565b8355505b6001600288020188555050505b505050505050565b7f556e6c696b656400000000000000000000000000000000000000000000000000600082015250565b6000610f216007836106eb565b9150610f2c82610eeb565b602082019050919050565b60006020820190508181036000830152610f5081610f14565b9050919050565b6000610f62826106ac565b9150610f6d836106ac565b9250828203905081811115610f8557610f84610c0a565b5b9291505056fea2646970667358221220539c934f361092af6e90798a84ad4cbf094b2780adf087d713cf1be3e55f63f264736f6c63430008110033",
  "linkReferences": {},
  "deployedLinkReferences": {}
}