{
  "_format": "hh-sol-artifact-1",
  "contractName": "userAccount",
  "sourceName": "contracts/INAHardhat.sol",
  "abi": [
    {
      "inputs": [
        {
          "internalType": "address",
          "name": "_owner",
          "type": "address"
        },
        {
          "internalType": "string",
          "name": "_userName",
          "type": "string"
        },
        {
          "internalType": "string",
          "name": "_userSymbol",
          "type": "string"
        }
      ],
      "stateMutability": "nonpayable",
      "type": "constructor"
    },
    {
      "anonymous": false,
      "inputs": [
        {
          "indexed": true,
          "internalType": "address",
          "name": "owner",
          "type": "address"
        },
        {
          "indexed": true,
          "internalType": "address",
          "name": "spender",
          "type": "address"
        },
        {
          "indexed": false,
          "internalType": "uint256",
          "name": "value",
          "type": "uint256"
        }
      ],
      "name": "Approval",
      "type": "event"
    },
    {
      "anonymous": false,
      "inputs": [
        {
          "indexed": true,
          "internalType": "address",
          "name": "from",
          "type": "address"
        },
        {
          "indexed": true,
          "internalType": "address",
          "name": "to",
          "type": "address"
        },
        {
          "indexed": false,
          "internalType": "uint256",
          "name": "value",
          "type": "uint256"
        }
      ],
      "name": "Transfer",
      "type": "event"
    },
    {
      "inputs": [
        {
          "internalType": "address",
          "name": "owner",
          "type": "address"
        },
        {
          "internalType": "address",
          "name": "spender",
          "type": "address"
        }
      ],
      "name": "allowance",
      "outputs": [
        {
          "internalType": "uint256",
          "name": "",
          "type": "uint256"
        }
      ],
      "stateMutability": "view",
      "type": "function"
    },
    {
      "inputs": [
        {
          "internalType": "address",
          "name": "spender",
          "type": "address"
        },
        {
          "internalType": "uint256",
          "name": "amount",
          "type": "uint256"
        }
      ],
      "name": "approve",
      "outputs": [
        {
          "internalType": "bool",
          "name": "",
          "type": "bool"
        }
      ],
      "stateMutability": "nonpayable",
      "type": "function"
    },
    {
      "inputs": [
        {
          "internalType": "address",
          "name": "account",
          "type": "address"
        }
      ],
      "name": "balanceOf",
      "outputs": [
        {
          "internalType": "uint256",
          "name": "",
          "type": "uint256"
        }
      ],
      "stateMutability": "view",
      "type": "function"
    },
    {
      "inputs": [
        {
          "internalType": "uint256",
          "name": "_amount",
          "type": "uint256"
        }
      ],
      "name": "buyUserToken",
      "outputs": [],
      "stateMutability": "nonpayable",
      "type": "function"
    },
    {
      "inputs": [],
      "name": "calcStockValue",
      "outputs": [
        {
          "internalType": "uint256",
          "name": "",
          "type": "uint256"
        }
      ],
      "stateMutability": "nonpayable",
      "type": "function"
    },
    {
      "inputs": [
        {
          "internalType": "string",
          "name": "description_",
          "type": "string"
        },
        {
          "internalType": "string",
          "name": "video_",
          "type": "string"
        }
      ],
      "name": "createPublication",
      "outputs": [],
      "stateMutability": "nonpayable",
      "type": "function"
    },
    {
      "inputs": [],
      "name": "decimals",
      "outputs": [
        {
          "internalType": "uint8",
          "name": "",
          "type": "uint8"
        }
      ],
      "stateMutability": "view",
      "type": "function"
    },
    {
      "inputs": [
        {
          "internalType": "address",
          "name": "spender",
          "type": "address"
        },
        {
          "internalType": "uint256",
          "name": "subtractedValue",
          "type": "uint256"
        }
      ],
      "name": "decreaseAllowance",
      "outputs": [
        {
          "internalType": "bool",
          "name": "",
          "type": "bool"
        }
      ],
      "stateMutability": "nonpayable",
      "type": "function"
    },
    {
      "inputs": [],
      "name": "follow",
      "outputs": [],
      "stateMutability": "nonpayable",
      "type": "function"
    },
    {
      "inputs": [
        {
          "internalType": "address",
          "name": "",
          "type": "address"
        }
      ],
      "name": "followersControl",
      "outputs": [
        {
          "internalType": "bool",
          "name": "",
          "type": "bool"
        }
      ],
      "stateMutability": "view",
      "type": "function"
    },
    {
      "inputs": [
        {
          "internalType": "address",
          "name": "spender",
          "type": "address"
        },
        {
          "internalType": "uint256",
          "name": "addedValue",
          "type": "uint256"
        }
      ],
      "name": "increaseAllowance",
      "outputs": [
        {
          "internalType": "bool",
          "name": "",
          "type": "bool"
        }
      ],
      "stateMutability": "nonpayable",
      "type": "function"
    },
    {
      "inputs": [],
      "name": "name",
      "outputs": [
        {
          "internalType": "string",
          "name": "",
          "type": "string"
        }
      ],
      "stateMutability": "view",
      "type": "function"
    },
    {
      "inputs": [],
      "name": "owner",
      "outputs": [
        {
          "internalType": "address",
          "name": "",
          "type": "address"
        }
      ],
      "stateMutability": "view",
      "type": "function"
    },
    {
      "inputs": [],
      "name": "returnPublicationAddressArray",
      "outputs": [
        {
          "internalType": "contract publication[]",
          "name": "",
          "type": "address[]"
        }
      ],
      "stateMutability": "view",
      "type": "function"
    },
    {
      "inputs": [],
      "name": "symbol",
      "outputs": [
        {
          "internalType": "string",
          "name": "",
          "type": "string"
        }
      ],
      "stateMutability": "view",
      "type": "function"
    },
    {
      "inputs": [],
      "name": "totalSupply",
      "outputs": [
        {
          "internalType": "uint256",
          "name": "",
          "type": "uint256"
        }
      ],
      "stateMutability": "view",
      "type": "function"
    },
    {
      "inputs": [
        {
          "internalType": "address",
          "name": "to",
          "type": "address"
        },
        {
          "internalType": "uint256",
          "name": "amount",
          "type": "uint256"
        }
      ],
      "name": "transfer",
      "outputs": [
        {
          "internalType": "bool",
          "name": "",
          "type": "bool"
        }
      ],
      "stateMutability": "nonpayable",
      "type": "function"
    },
    {
      "inputs": [
        {
          "internalType": "address",
          "name": "from",
          "type": "address"
        },
        {
          "internalType": "address",
          "name": "to",
          "type": "address"
        },
        {
          "internalType": "uint256",
          "name": "amount",
          "type": "uint256"
        }
      ],
      "name": "transferFrom",
      "outputs": [
        {
          "internalType": "bool",
          "name": "",
          "type": "bool"
        }
      ],
      "stateMutability": "nonpayable",
      "type": "function"
    },
    {
      "inputs": [],
      "name": "unfollow",
      "outputs": [],
      "stateMutability": "nonpayable",
      "type": "function"
    }
  ],
  "bytecode": "0x60806040523480156200001157600080fd5b50604051620047b6380380620047b68339818101604052810190620000379190620004fd565b818181600390816200004a9190620007e2565b5080600490816200005c9190620007e2565b505050620000be600560009054906101000a900473ffffffffffffffffffffffffffffffffffffffff16620000966200018560201b60201c565b600a620000a4919062000a59565b6064620000b2919062000aaa565b6200018e60201b60201c565b82600560006101000a81548173ffffffffffffffffffffffffffffffffffffffff021916908373ffffffffffffffffffffffffffffffffffffffff16021790555060006006819055506000600781905550600060088190555060006009819055506000600a819055507370997970c51812dc3a010c7d01b50e0d17dc79c8600b60006101000a81548173ffffffffffffffffffffffffffffffffffffffff021916908373ffffffffffffffffffffffffffffffffffffffff16021790555050505062000be1565b60006012905090565b600073ffffffffffffffffffffffffffffffffffffffff168273ffffffffffffffffffffffffffffffffffffffff160362000200576040517f08c379a0000000000000000000000000000000000000000000000000000000008152600401620001f79062000b56565b60405180910390fd5b6200021460008383620002fb60201b60201c565b806002600082825462000228919062000b78565b92505081905550806000808473ffffffffffffffffffffffffffffffffffffffff1673ffffffffffffffffffffffffffffffffffffffff168152602001908152602001600020600082825401925050819055508173ffffffffffffffffffffffffffffffffffffffff16600073ffffffffffffffffffffffffffffffffffffffff167fddf252ad1be2c89b69c2b068fc378daa952ba7f163c4a11628f55a4df523b3ef83604051620002db919062000bc4565b60405180910390a3620002f7600083836200030060201b60201c565b5050565b505050565b505050565b6000604051905090565b600080fd5b600080fd5b600073ffffffffffffffffffffffffffffffffffffffff82169050919050565b6000620003468262000319565b9050919050565b620003588162000339565b81146200036457600080fd5b50565b60008151905062000378816200034d565b92915050565b600080fd5b600080fd5b6000601f19601f8301169050919050565b7f4e487b7100000000000000000000000000000000000000000000000000000000600052604160045260246000fd5b620003d38262000388565b810181811067ffffffffffffffff82111715620003f557620003f462000399565b5b80604052505050565b60006200040a62000305565b9050620004188282620003c8565b919050565b600067ffffffffffffffff8211156200043b576200043a62000399565b5b620004468262000388565b9050602081019050919050565b60005b838110156200047357808201518184015260208101905062000456565b60008484015250505050565b60006200049662000490846200041d565b620003fe565b905082815260208101848484011115620004b557620004b462000383565b5b620004c284828562000453565b509392505050565b600082601f830112620004e257620004e16200037e565b5b8151620004f48482602086016200047f565b91505092915050565b6000806000606084860312156200051957620005186200030f565b5b6000620005298682870162000367565b935050602084015167ffffffffffffffff8111156200054d576200054c62000314565b5b6200055b86828701620004ca565b925050604084015167ffffffffffffffff8111156200057f576200057e62000314565b5b6200058d86828701620004ca565b9150509250925092565b600081519050919050565b7f4e487b7100000000000000000000000000000000000000000000000000000000600052602260045260246000fd5b60006002820490506001821680620005ea57607f821691505b6020821081036200060057620005ff620005a2565b5b50919050565b60008190508160005260206000209050919050565b60006020601f8301049050919050565b600082821b905092915050565b6000600883026200066a7fffffffffffffffffffffffffffffffffffffffffffffffffffffffffffffffff826200062b565b6200067686836200062b565b95508019841693508086168417925050509392505050565b6000819050919050565b6000819050919050565b6000620006c3620006bd620006b7846200068e565b62000698565b6200068e565b9050919050565b6000819050919050565b620006df83620006a2565b620006f7620006ee82620006ca565b84845462000638565b825550505050565b600090565b6200070e620006ff565b6200071b818484620006d4565b505050565b5b8181101562000743576200073760008262000704565b60018101905062000721565b5050565b601f82111562000792576200075c8162000606565b62000767846200061b565b8101602085101562000777578190505b6200078f62000786856200061b565b83018262000720565b50505b505050565b600082821c905092915050565b6000620007b76000198460080262000797565b1980831691505092915050565b6000620007d28383620007a4565b9150826002028217905092915050565b620007ed8262000597565b67ffffffffffffffff81111562000809576200080862000399565b5b620008158254620005d1565b6200082282828562000747565b600060209050601f8311600181146200085a576000841562000845578287015190505b620008518582620007c4565b865550620008c1565b601f1984166200086a8662000606565b60005b8281101562000894578489015182556001820191506020850194506020810190506200086d565b86831015620008b45784890151620008b0601f891682620007a4565b8355505b6001600288020188555050505b505050505050565b7f4e487b7100000000000000000000000000000000000000000000000000000000600052601160045260246000fd5b60008160011c9050919050565b6000808291508390505b600185111562000957578086048111156200092f576200092e620008c9565b5b60018516156200093f5780820291505b80810290506200094f85620008f8565b94506200090f565b94509492505050565b60008262000972576001905062000a45565b8162000982576000905062000a45565b81600181146200099b5760028114620009a657620009dc565b600191505062000a45565b60ff841115620009bb57620009ba620008c9565b5b8360020a915084821115620009d557620009d4620008c9565b5b5062000a45565b5060208310610133831016604e8410600b841016171562000a165782820a90508381111562000a105762000a0f620008c9565b5b62000a45565b62000a25848484600162000905565b9250905081840481111562000a3f5762000a3e620008c9565b5b81810290505b9392505050565b600060ff82169050919050565b600062000a66826200068e565b915062000a738362000a4c565b925062000aa27fffffffffffffffffffffffffffffffffffffffffffffffffffffffffffffffff848462000960565b905092915050565b600062000ab7826200068e565b915062000ac4836200068e565b925082820262000ad4816200068e565b9150828204841483151762000aee5762000aed620008c9565b5b5092915050565b600082825260208201905092915050565b7f45524332303a206d696e7420746f20746865207a65726f206164647265737300600082015250565b600062000b3e601f8362000af5565b915062000b4b8262000b06565b602082019050919050565b6000602082019050818103600083015262000b718162000b2f565b9050919050565b600062000b85826200068e565b915062000b92836200068e565b925082820190508082111562000bad5762000bac620008c9565b5b92915050565b62000bbe816200068e565b82525050565b600060208201905062000bdb600083018462000bb3565b92915050565b613bc58062000bf16000396000f3fe60806040523480156200001157600080fd5b50600436106200013c5760003560e01c80637865bc1111620000bd578063a433ccc7116200007b578063a433ccc71462000353578063a457c2d7146200035f578063a9059cbb1462000395578063c97164b414620003cb578063dd62ed3e1462000401576200013c565b80637865bc1114620002c15780638da5cb5b14620002cd57806395d89b4114620002ef5780639b6938e914620003115780639d946c951462000333576200013c565b8063313ce567116200010b578063313ce56714620001f15780633950935114620002135780633e1c8b8e14620002495780635c3fa3c8146200026957806370a08231146200028b576200013c565b806306fdde031462000141578063095ea7b3146200016357806318160ddd146200019957806323b872dd14620001bb575b600080fd5b6200014b62000437565b6040516200015a9190620015f8565b60405180910390f35b6200018160048036038101906200017b9190620016d0565b620004d1565b60405162000190919062001734565b60405180910390f35b620001a3620004f8565b604051620001b2919062001762565b60405180910390f35b620001d96004803603810190620001d391906200177f565b62000502565b604051620001e8919062001734565b60405180910390f35b620001fb62000537565b6040516200020a9190620017f9565b60405180910390f35b6200023160048036038101906200022b9190620016d0565b62000540565b60405162000240919062001734565b60405180910390f35b62000267600480360381019062000261919062001967565b6200057f565b005b62000273620006d7565b60405162000282919062001b14565b60405180910390f35b620002a96004803603810190620002a3919062001b38565b62000767565b604051620002b8919062001762565b60405180910390f35b620002cb620007af565b005b620002d7620008b4565b604051620002e6919062001b7b565b60405180910390f35b620002f9620008da565b604051620003089190620015f8565b60405180910390f35b6200031b62000974565b6040516200032a919062001762565b60405180910390f35b6200035160048036038101906200034b919062001b98565b620009ed565b005b6200035d62000c6f565b005b6200037d6004803603810190620003779190620016d0565b62000d75565b6040516200038c919062001734565b60405180910390f35b620003b36004803603810190620003ad9190620016d0565b62000df5565b604051620003c2919062001734565b60405180910390f35b620003e96004803603810190620003e3919062001b38565b62000e1c565b604051620003f8919062001734565b60405180910390f35b6200041f600480360381019062000419919062001bca565b62000e3c565b6040516200042e919062001762565b60405180910390f35b606060038054620004489062001c40565b80601f0160208091040260200160405190810160405280929190818152602001828054620004769062001c40565b8015620004c75780601f106200049b57610100808354040283529160200191620004c7565b820191906000526020600020905b815481529060010190602001808311620004a957829003601f168201915b5050505050905090565b600080620004de62000ec3565b9050620004ed81858562000ecb565b600191505092915050565b6000600254905090565b6000806200050f62000ec3565b90506200051e8582856200109c565b6200052b85858562001130565b60019150509392505050565b60006012905090565b6000806200054d62000ec3565b90506200057481858562000562858962000e3c565b6200056e919062001ca4565b62000ecb565b600191505092915050565b600560009054906101000a900473ffffffffffffffffffffffffffffffffffffffff1673ffffffffffffffffffffffffffffffffffffffff163373ffffffffffffffffffffffffffffffffffffffff161462000612576040517f08c379a0000000000000000000000000000000000000000000000000000000008152600401620006099062001d2f565b60405180910390fd5b6000828230604051620006259062001550565b620006339392919062001d51565b604051809103906000f08015801562000650573d6000803e3d6000fd5b509050600c819080600181540180825580915050600190039060005260206000200160009091909190916101000a81548173ffffffffffffffffffffffffffffffffffffffff021916908373ffffffffffffffffffffffffffffffffffffffff160217905550600160086000828254620006cb919062001ca4565b92505081905550505050565b6060600c8054806020026020016040519081016040528092919081815260200182805480156200075d57602002820191906000526020600020905b8160009054906101000a900473ffffffffffffffffffffffffffffffffffffffff1673ffffffffffffffffffffffffffffffffffffffff168152602001906001019080831162000712575b5050505050905090565b60008060008373ffffffffffffffffffffffffffffffffffffffff1673ffffffffffffffffffffffffffffffffffffffff168152602001908152602001600020549050919050565b600d60003373ffffffffffffffffffffffffffffffffffffffff1673ffffffffffffffffffffffffffffffffffffffff16815260200190815260200160002060009054906101000a900460ff166200083e576040517f08c379a0000000000000000000000000000000000000000000000000000000008152600401620008359062001dec565b60405180910390fd5b6000600d60003373ffffffffffffffffffffffffffffffffffffffff1673ffffffffffffffffffffffffffffffffffffffff16815260200190815260200160002060006101000a81548160ff021916908315150217905550600160076000828254620008ab919062001e0e565b92505081905550565b600560009054906101000a900473ffffffffffffffffffffffffffffffffffffffff1681565b606060048054620008eb9062001c40565b80601f0160208091040260200160405190810160405280929190818152602001828054620009199062001c40565b80156200096a5780601f106200093e576101008083540402835291602001916200096a565b820191906000526020600020905b8154815290600101906020018083116200094c57829003601f168201915b5050505050905090565b600062000980620013b5565b6000600a546009546008546007546200099a919062001ca4565b620009a6919062001ca4565b620009b2919062001ca4565b90508060068190555060006064670de0b6b3a7640000600654620009d7919062001e49565b620009e3919062001ec3565b9050809250505090565b6000600b60009054906101000a900473ffffffffffffffffffffffffffffffffffffffff1690506000309050600062000a2562000974565b90506000818562000a37919062001e49565b90506000670de0b6b3a76400008662000a51919062001e49565b9050818573ffffffffffffffffffffffffffffffffffffffff166370a08231336040518263ffffffff1660e01b815260040162000a8f919062001b7b565b602060405180830381865afa15801562000aad573d6000803e3d6000fd5b505050506040513d601f19601f8201168201806040525081019062000ad3919062001f12565b101562000b17576040517f08c379a000000000000000000000000000000000000000000000000000000000815260040162000b0e9062001f94565b60405180910390fd5b8473ffffffffffffffffffffffffffffffffffffffff166323b872dd33600560009054906101000a900473ffffffffffffffffffffffffffffffffffffffff16856040518463ffffffff1660e01b815260040162000b789392919062001fb6565b6020604051808303816000875af115801562000b98573d6000803e3d6000fd5b505050506040513d601f19601f8201168201806040525081019062000bbe919062002024565b508373ffffffffffffffffffffffffffffffffffffffff166323b872dd600560009054906101000a900473ffffffffffffffffffffffffffffffffffffffff1633846040518463ffffffff1660e01b815260040162000c209392919062001fb6565b6020604051808303816000875af115801562000c40573d6000803e3d6000fd5b505050506040513d601f19601f8201168201806040525081019062000c66919062002024565b50505050505050565b600d60003373ffffffffffffffffffffffffffffffffffffffff1673ffffffffffffffffffffffffffffffffffffffff16815260200190815260200160002060009054906101000a900460ff161562000cff576040517f08c379a000000000000000000000000000000000000000000000000000000000815260040162000cf690620020a6565b60405180910390fd5b6001600d60003373ffffffffffffffffffffffffffffffffffffffff1673ffffffffffffffffffffffffffffffffffffffff16815260200190815260200160002060006101000a81548160ff02191690831515021790555060016007600082825462000d6c919062001ca4565b92505081905550565b60008062000d8262000ec3565b9050600062000d92828662000e3c565b90508381101562000dda576040517f08c379a000000000000000000000000000000000000000000000000000000000815260040162000dd1906200213e565b60405180910390fd5b62000de9828686840362000ecb565b60019250505092915050565b60008062000e0262000ec3565b905062000e1181858562001130565b600191505092915050565b600d6020528060005260406000206000915054906101000a900460ff1681565b6000600160008473ffffffffffffffffffffffffffffffffffffffff1673ffffffffffffffffffffffffffffffffffffffff16815260200190815260200160002060008373ffffffffffffffffffffffffffffffffffffffff1673ffffffffffffffffffffffffffffffffffffffff16815260200190815260200160002054905092915050565b600033905090565b600073ffffffffffffffffffffffffffffffffffffffff168373ffffffffffffffffffffffffffffffffffffffff160362000f3d576040517f08c379a000000000000000000000000000000000000000000000000000000000815260040162000f3490620021d6565b60405180910390fd5b600073ffffffffffffffffffffffffffffffffffffffff168273ffffffffffffffffffffffffffffffffffffffff160362000faf576040517f08c379a000000000000000000000000000000000000000000000000000000000815260040162000fa6906200226e565b60405180910390fd5b80600160008573ffffffffffffffffffffffffffffffffffffffff1673ffffffffffffffffffffffffffffffffffffffff16815260200190815260200160002060008473ffffffffffffffffffffffffffffffffffffffff1673ffffffffffffffffffffffffffffffffffffffff168152602001908152602001600020819055508173ffffffffffffffffffffffffffffffffffffffff168373ffffffffffffffffffffffffffffffffffffffff167f8c5be1e5ebec7d5bd14f71427d1e84f3dd0314c0f7b2291e5b200ac8c7c3b925836040516200108f919062001762565b60405180910390a3505050565b6000620010aa848462000e3c565b90507fffffffffffffffffffffffffffffffffffffffffffffffffffffffffffffffff81146200112a57818110156200111a576040517f08c379a00000000000000000000000000000000000000000000000000000000081526004016200111190620022e0565b60405180910390fd5b62001129848484840362000ecb565b5b50505050565b600073ffffffffffffffffffffffffffffffffffffffff168373ffffffffffffffffffffffffffffffffffffffff1603620011a2576040517f08c379a0000000000000000000000000000000000000000000000000000000008152600401620011999062002378565b60405180910390fd5b600073ffffffffffffffffffffffffffffffffffffffff168273ffffffffffffffffffffffffffffffffffffffff160362001214576040517f08c379a00000000000000000000000000000000000000000000000000000000081526004016200120b9062002410565b60405180910390fd5b6200122183838362001546565b60008060008573ffffffffffffffffffffffffffffffffffffffff1673ffffffffffffffffffffffffffffffffffffffff16815260200190815260200160002054905081811015620012aa576040517f08c379a0000000000000000000000000000000000000000000000000000000008152600401620012a190620024a8565b60405180910390fd5b8181036000808673ffffffffffffffffffffffffffffffffffffffff1673ffffffffffffffffffffffffffffffffffffffff16815260200190815260200160002081905550816000808573ffffffffffffffffffffffffffffffffffffffff1673ffffffffffffffffffffffffffffffffffffffff168152602001908152602001600020600082825401925050819055508273ffffffffffffffffffffffffffffffffffffffff168473ffffffffffffffffffffffffffffffffffffffff167fddf252ad1be2c89b69c2b068fc378daa952ba7f163c4a11628f55a4df523b3ef846040516200139a919062001762565b60405180910390a3620013af8484846200154b565b50505050565b60008060005b600c80549050811162001533576000600c8281548110620013e157620013e0620024ca565b5b9060005260206000200160009054906101000a900473ffffffffffffffffffffffffffffffffffffffff16905060008173ffffffffffffffffffffffffffffffffffffffff166313ddab816040518163ffffffff1660e01b8152600401602060405180830381865afa1580156200145c573d6000803e3d6000fd5b505050506040513d601f19601f8201168201806040525081019062001482919062001f12565b905060008273ffffffffffffffffffffffffffffffffffffffff16634db083c66040518163ffffffff1660e01b8152600401602060405180830381865afa158015620014d2573d6000803e3d6000fd5b505050506040513d601f19601f82011682018060405250810190620014f8919062001f12565b9050818662001508919062001ca4565b9550808562001518919062001ca4565b945050505080806200152a90620024f9565b915050620013bb565b508160098190555080600a819055505050565b505050565b505050565b611649806200254783390190565b600081519050919050565b600082825260208201905092915050565b60005b838110156200159a5780820151818401526020810190506200157d565b60008484015250505050565b6000601f19601f8301169050919050565b6000620015c4826200155e565b620015d0818562001569565b9350620015e28185602086016200157a565b620015ed81620015a6565b840191505092915050565b60006020820190508181036000830152620016148184620015b7565b905092915050565b6000604051905090565b600080fd5b600080fd5b600073ffffffffffffffffffffffffffffffffffffffff82169050919050565b60006200165d8262001630565b9050919050565b6200166f8162001650565b81146200167b57600080fd5b50565b6000813590506200168f8162001664565b92915050565b6000819050919050565b620016aa8162001695565b8114620016b657600080fd5b50565b600081359050620016ca816200169f565b92915050565b60008060408385031215620016ea57620016e962001626565b5b6000620016fa858286016200167e565b92505060206200170d85828601620016b9565b9150509250929050565b60008115159050919050565b6200172e8162001717565b82525050565b60006020820190506200174b600083018462001723565b92915050565b6200175c8162001695565b82525050565b600060208201905062001779600083018462001751565b92915050565b6000806000606084860312156200179b576200179a62001626565b5b6000620017ab868287016200167e565b9350506020620017be868287016200167e565b9250506040620017d186828701620016b9565b9150509250925092565b600060ff82169050919050565b620017f381620017db565b82525050565b6000602082019050620018106000830184620017e8565b92915050565b600080fd5b600080fd5b7f4e487b7100000000000000000000000000000000000000000000000000000000600052604160045260246000fd5b6200185a82620015a6565b810181811067ffffffffffffffff821117156200187c576200187b62001820565b5b80604052505050565b6000620018916200161c565b90506200189f82826200184f565b919050565b600067ffffffffffffffff821115620018c257620018c162001820565b5b620018cd82620015a6565b9050602081019050919050565b82818337600083830152505050565b600062001900620018fa84620018a4565b62001885565b9050828152602081018484840111156200191f576200191e6200181b565b5b6200192c848285620018da565b509392505050565b600082601f8301126200194c576200194b62001816565b5b81356200195e848260208601620018e9565b91505092915050565b6000806040838503121562001981576200198062001626565b5b600083013567ffffffffffffffff811115620019a257620019a16200162b565b5b620019b08582860162001934565b925050602083013567ffffffffffffffff811115620019d457620019d36200162b565b5b620019e28582860162001934565b9150509250929050565b600081519050919050565b600082825260208201905092915050565b6000819050602082019050919050565b6000819050919050565b600062001a4362001a3d62001a378462001630565b62001a18565b62001630565b9050919050565b600062001a578262001a22565b9050919050565b600062001a6b8262001a4a565b9050919050565b62001a7d8162001a5e565b82525050565b600062001a91838362001a72565b60208301905092915050565b6000602082019050919050565b600062001ab782620019ec565b62001ac38185620019f7565b935062001ad08362001a08565b8060005b8381101562001b0757815162001aeb888262001a83565b975062001af88362001a9d565b92505060018101905062001ad4565b5085935050505092915050565b6000602082019050818103600083015262001b30818462001aaa565b905092915050565b60006020828403121562001b515762001b5062001626565b5b600062001b61848285016200167e565b91505092915050565b62001b758162001650565b82525050565b600060208201905062001b92600083018462001b6a565b92915050565b60006020828403121562001bb15762001bb062001626565b5b600062001bc184828501620016b9565b91505092915050565b6000806040838503121562001be45762001be362001626565b5b600062001bf4858286016200167e565b925050602062001c07858286016200167e565b9150509250929050565b7f4e487b7100000000000000000000000000000000000000000000000000000000600052602260045260246000fd5b6000600282049050600182168062001c5957607f821691505b60208210810362001c6f5762001c6e62001c11565b5b50919050565b7f4e487b7100000000000000000000000000000000000000000000000000000000600052601160045260246000fd5b600062001cb18262001695565b915062001cbe8362001695565b925082820190508082111562001cd95762001cd862001c75565b5b92915050565b7f4552524f523a20596f75277265206e6f7420746865206f776e65720000000000600082015250565b600062001d17601b8362001569565b915062001d248262001cdf565b602082019050919050565b6000602082019050818103600083015262001d4a8162001d08565b9050919050565b6000606082019050818103600083015262001d6d8186620015b7565b9050818103602083015262001d838185620015b7565b905062001d94604083018462001b6a565b949350505050565b7f556e666f6c6c6f77696e67000000000000000000000000000000000000000000600082015250565b600062001dd4600b8362001569565b915062001de18262001d9c565b602082019050919050565b6000602082019050818103600083015262001e078162001dc5565b9050919050565b600062001e1b8262001695565b915062001e288362001695565b925082820390508181111562001e435762001e4262001c75565b5b92915050565b600062001e568262001695565b915062001e638362001695565b925082820262001e738162001695565b9150828204841483151762001e8d5762001e8c62001c75565b5b5092915050565b7f4e487b7100000000000000000000000000000000000000000000000000000000600052601260045260246000fd5b600062001ed08262001695565b915062001edd8362001695565b92508262001ef05762001eef62001e94565b5b828204905092915050565b60008151905062001f0c816200169f565b92915050565b60006020828403121562001f2b5762001f2a62001626565b5b600062001f3b8482850162001efb565b91505092915050565b7f4552524f523a2062616c616e6365000000000000000000000000000000000000600082015250565b600062001f7c600e8362001569565b915062001f898262001f44565b602082019050919050565b6000602082019050818103600083015262001faf8162001f6d565b9050919050565b600060608201905062001fcd600083018662001b6a565b62001fdc602083018562001b6a565b62001feb604083018462001751565b949350505050565b62001ffe8162001717565b81146200200a57600080fd5b50565b6000815190506200201e8162001ff3565b92915050565b6000602082840312156200203d576200203c62001626565b5b60006200204d848285016200200d565b91505092915050565b7f466f6c6c6f77696e670000000000000000000000000000000000000000000000600082015250565b60006200208e60098362001569565b91506200209b8262002056565b602082019050919050565b60006020820190508181036000830152620020c1816200207f565b9050919050565b7f45524332303a2064656372656173656420616c6c6f77616e63652062656c6f7760008201527f207a65726f000000000000000000000000000000000000000000000000000000602082015250565b60006200212660258362001569565b91506200213382620020c8565b604082019050919050565b60006020820190508181036000830152620021598162002117565b9050919050565b7f45524332303a20617070726f76652066726f6d20746865207a65726f2061646460008201527f7265737300000000000000000000000000000000000000000000000000000000602082015250565b6000620021be60248362001569565b9150620021cb8262002160565b604082019050919050565b60006020820190508181036000830152620021f181620021af565b9050919050565b7f45524332303a20617070726f766520746f20746865207a65726f20616464726560008201527f7373000000000000000000000000000000000000000000000000000000000000602082015250565b60006200225660228362001569565b91506200226382620021f8565b604082019050919050565b60006020820190508181036000830152620022898162002247565b9050919050565b7f45524332303a20696e73756666696369656e7420616c6c6f77616e6365000000600082015250565b6000620022c8601d8362001569565b9150620022d58262002290565b602082019050919050565b60006020820190508181036000830152620022fb81620022b9565b9050919050565b7f45524332303a207472616e736665722066726f6d20746865207a65726f20616460008201527f6472657373000000000000000000000000000000000000000000000000000000602082015250565b60006200236060258362001569565b91506200236d8262002302565b604082019050919050565b60006020820190508181036000830152620023938162002351565b9050919050565b7f45524332303a207472616e7366657220746f20746865207a65726f206164647260008201527f6573730000000000000000000000000000000000000000000000000000000000602082015250565b6000620023f860238362001569565b915062002405826200239a565b604082019050919050565b600060208201905081810360008301526200242b81620023e9565b9050919050565b7f45524332303a207472616e7366657220616d6f756e742065786365656473206260008201527f616c616e63650000000000000000000000000000000000000000000000000000602082015250565b60006200249060268362001569565b91506200249d8262002432565b604082019050919050565b60006020820190508181036000830152620024c38162002481565b9050919050565b7f4e487b7100000000000000000000000000000000000000000000000000000000600052603260045260246000fd5b6000620025068262001695565b91507fffffffffffffffffffffffffffffffffffffffffffffffffffffffffffffffff82036200253b576200253a62001c75565b5b60018201905091905056fe60806040523480156200001157600080fd5b5060405162001649380380620016498339818101604052810190620000379190620002ac565b826001908162000048919062000591565b5081600290816200005a919062000591565b50806000806101000a81548173ffffffffffffffffffffffffffffffffffffffff021916908373ffffffffffffffffffffffffffffffffffffffff1602179055506000600381905550600060048190555050505062000678565b6000604051905090565b600080fd5b600080fd5b600080fd5b600080fd5b6000601f19601f8301169050919050565b7f4e487b7100000000000000000000000000000000000000000000000000000000600052604160045260246000fd5b6200011d82620000d2565b810181811067ffffffffffffffff821117156200013f576200013e620000e3565b5b80604052505050565b600062000154620000b4565b905062000162828262000112565b919050565b600067ffffffffffffffff821115620001855762000184620000e3565b5b6200019082620000d2565b9050602081019050919050565b60005b83811015620001bd578082015181840152602081019050620001a0565b60008484015250505050565b6000620001e0620001da8462000167565b62000148565b905082815260208101848484011115620001ff57620001fe620000cd565b5b6200020c8482856200019d565b509392505050565b600082601f8301126200022c576200022b620000c8565b5b81516200023e848260208601620001c9565b91505092915050565b600073ffffffffffffffffffffffffffffffffffffffff82169050919050565b6000620002748262000247565b9050919050565b620002868162000267565b81146200029257600080fd5b50565b600081519050620002a6816200027b565b92915050565b600080600060608486031215620002c857620002c7620000be565b5b600084015167ffffffffffffffff811115620002e957620002e8620000c3565b5b620002f78682870162000214565b935050602084015167ffffffffffffffff8111156200031b576200031a620000c3565b5b620003298682870162000214565b92505060406200033c8682870162000295565b9150509250925092565b600081519050919050565b7f4e487b7100000000000000000000000000000000000000000000000000000000600052602260045260246000fd5b600060028204905060018216806200039957607f821691505b602082108103620003af57620003ae62000351565b5b50919050565b60008190508160005260206000209050919050565b60006020601f8301049050919050565b600082821b905092915050565b600060088302620004197fffffffffffffffffffffffffffffffffffffffffffffffffffffffffffffffff82620003da565b620004258683620003da565b95508019841693508086168417925050509392505050565b6000819050919050565b6000819050919050565b6000620004726200046c62000466846200043d565b62000447565b6200043d565b9050919050565b6000819050919050565b6200048e8362000451565b620004a66200049d8262000479565b848454620003e7565b825550505050565b600090565b620004bd620004ae565b620004ca81848462000483565b505050565b5b81811015620004f257620004e6600082620004b3565b600181019050620004d0565b5050565b601f82111562000541576200050b81620003b5565b6200051684620003ca565b8101602085101562000526578190505b6200053e6200053585620003ca565b830182620004cf565b50505b505050565b600082821c905092915050565b6000620005666000198460080262000546565b1980831691505092915050565b600062000581838362000553565b9150826002028217905092915050565b6200059c8262000346565b67ffffffffffffffff811115620005b857620005b7620000e3565b5b620005c4825462000380565b620005d1828285620004f6565b600060209050601f831160018114620006095760008415620005f4578287015190505b62000600858262000573565b86555062000670565b601f1984166200061986620003b5565b60005b8281101562000643578489015182556001820191506020850194506020810190506200061c565b868310156200066357848901516200065f601f89168262000553565b8355505b6001600288020188555050505b505050505050565b610fc180620006886000396000f3fe608060405234801561001057600080fd5b50600436106100935760003560e01c806363dc0bb31161006657806363dc0bb3146100fd5780637bb7f6bd1461012d578063a40d0eb11461014b578063b2bdfa7b14610167578063cc49d3391461018557610093565b806313ddab81146100985780631420d75d146100b6578063360da1ed146100d55780634db083c6146100df575b600080fd5b6100a061018f565b6040516100ad91906106c5565b60405180910390f35b6100be610199565b6040516100cc929190610770565b60405180910390f35b6100dd6102c0565b005b6100e76103c1565b6040516100f491906106c5565b60405180910390f35b610117600480360381019061011291906107e7565b6103cb565b6040516101249190610814565b60405180910390f35b610135610477565b6040516101429190610942565b60405180910390f35b61016560048036038101906101609190610a99565b610550565b005b61016f610588565b60405161017c9190610b23565b60405180910390f35b61018d6105ac565b005b6000600354905090565b606080600160028180546101ac90610b6d565b80601f01602080910402602001604051908101604052809291908181526020018280546101d890610b6d565b80156102255780601f106101fa57610100808354040283529160200191610225565b820191906000526020600020905b81548152906001019060200180831161020857829003601f168201915b5050505050915080805461023890610b6d565b80601f016020809104026020016040519081016040528092919081815260200182805461026490610b6d565b80156102b15780601f10610286576101008083540402835291602001916102b1565b820191906000526020600020905b81548152906001019060200180831161029457829003601f168201915b50505050509050915091509091565b600560003373ffffffffffffffffffffffffffffffffffffffff1673ffffffffffffffffffffffffffffffffffffffff16815260200190815260200160002060009054906101000a900460ff161561034d576040517f08c379a000000000000000000000000000000000000000000000000000000000815260040161034490610bea565b60405180910390fd5b6001600560003373ffffffffffffffffffffffffffffffffffffffff1673ffffffffffffffffffffffffffffffffffffffff16815260200190815260200160002060006101000a81548160ff0219169083151502179055506001600360008282546103b89190610c39565b92505081905550565b6000600454905090565b600681815481106103db57600080fd5b9060005260206000200160009150905080546103f690610b6d565b80601f016020809104026020016040519081016040528092919081815260200182805461042290610b6d565b801561046f5780601f106104445761010080835404028352916020019161046f565b820191906000526020600020905b81548152906001019060200180831161045257829003601f168201915b505050505081565b60606006805480602002602001604051908101604052809291908181526020016000905b828210156105475783829060005260206000200180546104ba90610b6d565b80601f01602080910402602001604051908101604052809291908181526020018280546104e690610b6d565b80156105335780601f1061050857610100808354040283529160200191610533565b820191906000526020600020905b81548152906001019060200180831161051657829003601f168201915b50505050508152602001906001019061049b565b50505050905090565b6006819080600181540180825580915050600190039060005260206000200160009091909190915090816105849190610e19565b5050565b60008054906101000a900473ffffffffffffffffffffffffffffffffffffffff1681565b600560003373ffffffffffffffffffffffffffffffffffffffff1673ffffffffffffffffffffffffffffffffffffffff16815260200190815260200160002060009054906101000a900460ff16610638576040517f08c379a000000000000000000000000000000000000000000000000000000000815260040161062f90610f37565b60405180910390fd5b6000600560003373ffffffffffffffffffffffffffffffffffffffff1673ffffffffffffffffffffffffffffffffffffffff16815260200190815260200160002060006101000a81548160ff0219169083151502179055506001600360008282546106a39190610f57565b92505081905550565b6000819050919050565b6106bf816106ac565b82525050565b60006020820190506106da60008301846106b6565b92915050565b600081519050919050565b600082825260208201905092915050565b60005b8381101561071a5780820151818401526020810190506106ff565b60008484015250505050565b6000601f19601f8301169050919050565b6000610742826106e0565b61074c81856106eb565b935061075c8185602086016106fc565b61076581610726565b840191505092915050565b6000604082019050818103600083015261078a8185610737565b9050818103602083015261079e8184610737565b90509392505050565b6000604051905090565b600080fd5b600080fd5b6107c4816106ac565b81146107cf57600080fd5b50565b6000813590506107e1816107bb565b92915050565b6000602082840312156107fd576107fc6107b1565b5b600061080b848285016107d2565b91505092915050565b6000602082019050818103600083015261082e8184610737565b905092915050565b600081519050919050565b600082825260208201905092915050565b6000819050602082019050919050565b600082825260208201905092915050565b600061087e826106e0565b6108888185610862565b93506108988185602086016106fc565b6108a181610726565b840191505092915050565b60006108b88383610873565b905092915050565b6000602082019050919050565b60006108d882610836565b6108e28185610841565b9350836020820285016108f485610852565b8060005b85811015610930578484038952815161091185826108ac565b945061091c836108c0565b925060208a019950506001810190506108f8565b50829750879550505050505092915050565b6000602082019050818103600083015261095c81846108cd565b905092915050565b600080fd5b600080fd5b7f4e487b7100000000000000000000000000000000000000000000000000000000600052604160045260246000fd5b6109a682610726565b810181811067ffffffffffffffff821117156109c5576109c461096e565b5b80604052505050565b60006109d86107a7565b90506109e4828261099d565b919050565b600067ffffffffffffffff821115610a0457610a0361096e565b5b610a0d82610726565b9050602081019050919050565b82818337600083830152505050565b6000610a3c610a37846109e9565b6109ce565b905082815260208101848484011115610a5857610a57610969565b5b610a63848285610a1a565b509392505050565b600082601f830112610a8057610a7f610964565b5b8135610a90848260208601610a29565b91505092915050565b600060208284031215610aaf57610aae6107b1565b5b600082013567ffffffffffffffff811115610acd57610acc6107b6565b5b610ad984828501610a6b565b91505092915050565b600073ffffffffffffffffffffffffffffffffffffffff82169050919050565b6000610b0d82610ae2565b9050919050565b610b1d81610b02565b82525050565b6000602082019050610b386000830184610b14565b92915050565b7f4e487b7100000000000000000000000000000000000000000000000000000000600052602260045260246000fd5b60006002820490506001821680610b8557607f821691505b602082108103610b9857610b97610b3e565b5b50919050565b7f4c696b6564000000000000000000000000000000000000000000000000000000600082015250565b6000610bd46005836106eb565b9150610bdf82610b9e565b602082019050919050565b60006020820190508181036000830152610c0381610bc7565b9050919050565b7f4e487b7100000000000000000000000000000000000000000000000000000000600052601160045260246000fd5b6000610c44826106ac565b9150610c4f836106ac565b9250828201905080821115610c6757610c66610c0a565b5b92915050565b60008190508160005260206000209050919050565b60006020601f8301049050919050565b600082821b905092915050565b600060088302610ccf7fffffffffffffffffffffffffffffffffffffffffffffffffffffffffffffffff82610c92565b610cd98683610c92565b95508019841693508086168417925050509392505050565b6000819050919050565b6000610d16610d11610d0c846106ac565b610cf1565b6106ac565b9050919050565b6000819050919050565b610d3083610cfb565b610d44610d3c82610d1d565b848454610c9f565b825550505050565b600090565b610d59610d4c565b610d64818484610d27565b505050565b5b81811015610d8857610d7d600082610d51565b600181019050610d6a565b5050565b601f821115610dcd57610d9e81610c6d565b610da784610c82565b81016020851015610db6578190505b610dca610dc285610c82565b830182610d69565b50505b505050565b600082821c905092915050565b6000610df060001984600802610dd2565b1980831691505092915050565b6000610e098383610ddf565b9150826002028217905092915050565b610e22826106e0565b67ffffffffffffffff811115610e3b57610e3a61096e565b5b610e458254610b6d565b610e50828285610d8c565b600060209050601f831160018114610e835760008415610e71578287015190505b610e7b8582610dfd565b865550610ee3565b601f198416610e9186610c6d565b60005b82811015610eb957848901518255600182019150602085019450602081019050610e94565b86831015610ed65784890151610ed2601f891682610ddf565b8355505b6001600288020188555050505b505050505050565b7f556e6c696b656400000000000000000000000000000000000000000000000000600082015250565b6000610f216007836106eb565b9150610f2c82610eeb565b602082019050919050565b60006020820190508181036000830152610f5081610f14565b9050919050565b6000610f62826106ac565b9150610f6d836106ac565b9250828203905081811115610f8557610f84610c0a565b5b9291505056fea2646970667358221220716df6e3b841337081969c10c7e68794385dc7ce0d42602535d98b972f7e730564736f6c63430008110033a2646970667358221220f2b06cba093eb30fe8e1d425e1c55e37397f4e51aaf20f7936021c7e8d50e48164736f6c63430008110033",
  "linkReferences": {},
  "deployedLinkReferences": {}
}